{
  "contractName": "IncentiveScheme",
  "abi": [
    {
      "inputs": [],
      "stateMutability": "payable",
      "type": "constructor",
      "payable": true
    },
    {
      "anonymous": false,
      "inputs": [
        {
          "indexed": false,
          "internalType": "uint256",
          "name": "roundNumber",
          "type": "uint256"
        }
      ],
      "name": "AllParticipantsSubmitted",
      "type": "event"
    },
    {
      "anonymous": false,
      "inputs": [
        {
          "indexed": false,
          "internalType": "uint256",
          "name": "roundNumber",
          "type": "uint256"
        }
      ],
      "name": "EvaluationsSubmitted",
      "type": "event"
    },
    {
      "anonymous": false,
      "inputs": [
        {
          "indexed": false,
          "internalType": "address",
          "name": "participant",
          "type": "address"
        },
        {
          "indexed": false,
          "internalType": "string",
          "name": "cid",
          "type": "string"
        }
      ],
      "name": "GlobalModelSubmitted",
      "type": "event"
    },
    {
      "anonymous": false,
      "inputs": [
        {
          "indexed": true,
          "internalType": "address",
          "name": "participant",
          "type": "address"
        },
        {
          "indexed": false,
          "internalType": "string",
          "name": "gradientCID",
          "type": "string"
        },
        {
          "indexed": false,
          "internalType": "uint256",
          "name": "stake",
          "type": "uint256"
        },
        {
          "indexed": false,
          "internalType": "uint256",
          "name": "roundNumber",
          "type": "uint256"
        }
      ],
      "name": "GradientSubmitted",
      "type": "event"
    },
    {
      "anonymous": false,
      "inputs": [
        {
          "indexed": false,
          "internalType": "address",
          "name": "participant",
          "type": "address"
        },
        {
          "indexed": false,
          "internalType": "uint256",
          "name": "roundNumber",
          "type": "uint256"
        }
      ],
      "name": "NeutralContribution",
      "type": "event"
    },
    {
      "anonymous": false,
      "inputs": [
        {
          "indexed": false,
          "internalType": "uint256",
          "name": "roundNumber",
          "type": "uint256"
        }
      ],
      "name": "NewRoundStarted",
      "type": "event"
    },
    {
      "anonymous": false,
      "inputs": [
        {
          "indexed": false,
          "internalType": "address",
          "name": "participant",
          "type": "address"
        }
      ],
      "name": "ParticipantRegistered",
      "type": "event"
    },
    {
      "anonymous": false,
      "inputs": [
        {
          "indexed": false,
          "internalType": "address",
          "name": "participant",
          "type": "address"
        }
      ],
      "name": "ParticipantUnregistered",
      "type": "event"
    },
    {
      "anonymous": false,
      "inputs": [
        {
          "indexed": false,
          "internalType": "address",
          "name": "participant",
          "type": "address"
        },
        {
          "indexed": false,
          "internalType": "uint256",
          "name": "amount",
          "type": "uint256"
        },
        {
          "indexed": false,
          "internalType": "uint256",
          "name": "roundNumber",
          "type": "uint256"
        }
      ],
      "name": "Punished",
      "type": "event"
    },
    {
      "anonymous": false,
      "inputs": [
        {
          "indexed": false,
          "internalType": "address",
          "name": "participant",
          "type": "address"
        },
        {
          "indexed": false,
          "internalType": "int256",
          "name": "reputationChange",
          "type": "int256"
        },
        {
          "indexed": false,
          "internalType": "uint256",
          "name": "roundNumber",
          "type": "uint256"
        }
      ],
      "name": "ReputationUpdated",
      "type": "event"
    },
    {
      "anonymous": false,
      "inputs": [
        {
          "indexed": false,
          "internalType": "address",
          "name": "participant",
          "type": "address"
        },
        {
          "indexed": false,
          "internalType": "uint256",
          "name": "amount",
          "type": "uint256"
        },
        {
          "indexed": false,
          "internalType": "uint256",
          "name": "roundNumber",
          "type": "uint256"
        }
      ],
      "name": "Rewarded",
      "type": "event"
    },
    {
      "inputs": [],
      "name": "allSubmitted",
      "outputs": [
        {
          "internalType": "bool",
          "name": "",
          "type": "bool"
        }
      ],
      "stateMutability": "view",
      "type": "function",
      "constant": true
    },
    {
      "inputs": [],
      "name": "evaluationsSubmitted",
      "outputs": [
        {
          "internalType": "bool",
          "name": "",
          "type": "bool"
        }
      ],
      "stateMutability": "view",
      "type": "function",
      "constant": true
    },
    {
      "inputs": [],
      "name": "globalModelSubmitted",
      "outputs": [
        {
          "internalType": "bool",
          "name": "",
          "type": "bool"
        }
      ],
      "stateMutability": "view",
      "type": "function",
      "constant": true
    },
    {
      "inputs": [],
      "name": "owner",
      "outputs": [
        {
          "internalType": "address",
          "name": "",
          "type": "address"
        }
      ],
      "stateMutability": "view",
      "type": "function",
      "constant": true
    },
    {
      "inputs": [
        {
          "internalType": "uint256",
          "name": "",
          "type": "uint256"
        }
      ],
      "name": "participantAddrs",
      "outputs": [
        {
          "internalType": "address",
          "name": "",
          "type": "address"
        }
      ],
      "stateMutability": "view",
      "type": "function",
      "constant": true
    },
    {
      "inputs": [],
      "name": "participantCount",
      "outputs": [
        {
          "internalType": "uint256",
          "name": "",
          "type": "uint256"
        }
      ],
      "stateMutability": "view",
      "type": "function",
      "constant": true
    },
    {
      "inputs": [
        {
          "internalType": "address",
          "name": "",
          "type": "address"
        }
      ],
      "name": "participants",
      "outputs": [
        {
          "internalType": "string",
          "name": "name",
          "type": "string"
        },
        {
          "internalType": "uint256",
          "name": "reputationScore",
          "type": "uint256"
        },
        {
          "internalType": "bool",
          "name": "exists",
          "type": "bool"
        },
        {
          "internalType": "string",
          "name": "gradientCID",
          "type": "string"
        },
        {
          "internalType": "uint256",
          "name": "stake",
          "type": "uint256"
        },
        {
          "internalType": "bool",
          "name": "submitted",
          "type": "bool"
        },
        {
          "internalType": "int256",
          "name": "evaluation",
          "type": "int256"
        },
        {
          "internalType": "bool",
          "name": "permittedToGlobalModel",
          "type": "bool"
        },
        {
          "internalType": "string",
          "name": "globalModelCID",
          "type": "string"
        }
      ],
      "stateMutability": "view",
      "type": "function",
      "constant": true
    },
    {
      "inputs": [],
      "name": "reward",
      "outputs": [
        {
          "internalType": "uint256",
          "name": "",
          "type": "uint256"
        }
      ],
      "stateMutability": "view",
      "type": "function",
      "constant": true
    },
    {
      "inputs": [],
      "name": "rewardPool",
      "outputs": [
        {
          "internalType": "uint256",
          "name": "",
          "type": "uint256"
        }
      ],
      "stateMutability": "view",
      "type": "function",
      "constant": true
    },
    {
      "inputs": [],
      "name": "rewardPunishCompleted",
      "outputs": [
        {
          "internalType": "bool",
          "name": "",
          "type": "bool"
        }
      ],
      "stateMutability": "view",
      "type": "function",
      "constant": true
    },
    {
      "inputs": [],
      "name": "roundNumber",
      "outputs": [
        {
          "internalType": "uint256",
          "name": "",
          "type": "uint256"
        }
      ],
      "stateMutability": "view",
      "type": "function",
      "constant": true
    },
    {
      "inputs": [],
      "name": "submissionCount",
      "outputs": [
        {
          "internalType": "uint256",
          "name": "",
          "type": "uint256"
        }
      ],
      "stateMutability": "view",
      "type": "function",
      "constant": true
    },
    {
      "inputs": [],
      "name": "deposit",
      "outputs": [],
      "stateMutability": "payable",
      "type": "function",
      "payable": true
    },
    {
      "inputs": [
        {
          "internalType": "address",
          "name": "addr",
          "type": "address"
        },
        {
          "internalType": "string",
          "name": "name",
          "type": "string"
        }
      ],
      "name": "registerParticipant",
      "outputs": [],
      "stateMutability": "nonpayable",
      "type": "function"
    },
    {
      "inputs": [
        {
          "internalType": "address",
          "name": "addr",
          "type": "address"
        }
      ],
      "name": "unregisterParticipant",
      "outputs": [],
      "stateMutability": "nonpayable",
      "type": "function"
    },
    {
      "inputs": [
        {
          "internalType": "address",
          "name": "addr",
          "type": "address"
        }
      ],
      "name": "getParticipant",
      "outputs": [
        {
          "components": [
            {
              "internalType": "string",
              "name": "name",
              "type": "string"
            },
            {
              "internalType": "uint256",
              "name": "reputationScore",
              "type": "uint256"
            },
            {
              "internalType": "bool",
              "name": "exists",
              "type": "bool"
            },
            {
              "internalType": "string",
              "name": "gradientCID",
              "type": "string"
            },
            {
              "internalType": "uint256",
              "name": "stake",
              "type": "uint256"
            },
            {
              "internalType": "bool",
              "name": "submitted",
              "type": "bool"
            },
            {
              "internalType": "int256",
              "name": "evaluation",
              "type": "int256"
            },
            {
              "internalType": "bool",
              "name": "permittedToGlobalModel",
              "type": "bool"
            },
            {
              "internalType": "string",
              "name": "globalModelCID",
              "type": "string"
            }
          ],
          "internalType": "struct IncentiveScheme.Participant",
          "name": "",
          "type": "tuple"
        }
      ],
      "stateMutability": "view",
      "type": "function",
      "constant": true
    },
    {
      "inputs": [
        {
          "internalType": "string",
          "name": "gradientCID",
          "type": "string"
        }
      ],
      "name": "submitGradientUpdate",
      "outputs": [],
      "stateMutability": "payable",
      "type": "function",
      "payable": true
    },
    {
      "inputs": [
        {
          "internalType": "address[]",
          "name": "addresses",
          "type": "address[]"
        },
        {
          "internalType": "int256[]",
          "name": "evaluations",
          "type": "int256[]"
        }
      ],
      "name": "submitContributionEvaluations",
      "outputs": [],
      "stateMutability": "nonpayable",
      "type": "function"
    },
    {
      "inputs": [],
      "name": "rewardPunish",
      "outputs": [],
      "stateMutability": "nonpayable",
      "type": "function"
    },
    {
      "inputs": [
        {
          "internalType": "address",
          "name": "participant",
          "type": "address"
        },
        {
          "internalType": "string",
          "name": "cid",
          "type": "string"
        }
      ],
      "name": "submitGlobalModelCID",
      "outputs": [],
      "stateMutability": "nonpayable",
      "type": "function"
    },
    {
      "inputs": [],
      "name": "newRound",
      "outputs": [],
      "stateMutability": "nonpayable",
      "type": "function"
    }
  ],
  "bytecode": "0x608060405267016345785d8a000060055560006007556000600860006101000a81548160ff0219169083151502179055506000600860016101000a81548160ff0219169083151502179055506000600860026101000a81548160ff0219169083151502179055506000600860036101000a81548160ff02191690831515021790555033600360006101000a81548173ffffffffffffffffffffffffffffffffffffffff021916908373ffffffffffffffffffffffffffffffffffffffff1602179055506001600681905550346004819055506139cd806100e06000396000f3fe60806040526004361061012a5760003560e01c80636ec02be9116100ab578063a50d02aa1161006f578063a50d02aa146103c9578063c5b1d9aa146103f4578063ce29cf471461040b578063d0e30db014610434578063ec3a003b1461043e578063fe1cdcc8146104695761012a565b80636ec02be9146102f65780637143059f1461032157806375e725691461035e5780638da5cb5b14610387578063a11dbb2f146103b25761012a565b8063362f04c0116100f2578063362f04c01461022e578063482d7a9c1461025957806349d07e89146102845780634e2786fb146102a057806366666aa9146102cb5761012a565b806307aedfd31461012f57806309e69ede1461015857806321fae0b31461019d578063228cb733146101da57806331f3ab3714610205575b600080fd5b34801561013b57600080fd5b5061015660048036038101906101519190612945565b610494565b005b34801561016457600080fd5b5061017f600480360381019061017a919061291c565b6106ec565b6040516101949998979695949392919061339c565b60405180910390f35b3480156101a957600080fd5b506101c460048036038101906101bf9190612a57565b6108f9565b6040516101d19190613226565b60405180910390f35b3480156101e657600080fd5b506101ef610938565b6040516101fc91906136c0565b60405180910390f35b34801561021157600080fd5b5061022c60048036038101906102279190612945565b61093e565b005b34801561023a57600080fd5b50610243610d1d565b60405161025091906136c0565b60405180910390f35b34801561026557600080fd5b5061026e610d23565b60405161027b9190613341565b60405180910390f35b61029e60048036038101906102999190612a12565b610d36565b005b3480156102ac57600080fd5b506102b5611062565b6040516102c291906136c0565b60405180910390f35b3480156102d757600080fd5b506102e0611068565b6040516102ed91906136c0565b60405180910390f35b34801561030257600080fd5b5061030b61106e565b60405161031891906136c0565b60405180910390f35b34801561032d57600080fd5b506103486004803603810190610343919061291c565b611074565b604051610355919061369e565b60405180910390f35b34801561036a57600080fd5b506103856004803603810190610380919061291c565b611380565b005b34801561039357600080fd5b5061039c6117d9565b6040516103a99190613226565b60405180910390f35b3480156103be57600080fd5b506103c76117ff565b005b3480156103d557600080fd5b506103de611e04565b6040516103eb9190613341565b60405180910390f35b34801561040057600080fd5b50610409611e17565b005b34801561041757600080fd5b50610432600480360381019061042d919061299d565b612156565b005b61043c612545565b005b34801561044a57600080fd5b50610453612633565b6040516104609190613341565b60405180910390f35b34801561047557600080fd5b5061047e612646565b60405161048b9190613341565b60405180910390f35b600360009054906101000a900473ffffffffffffffffffffffffffffffffffffffff1673ffffffffffffffffffffffffffffffffffffffff163373ffffffffffffffffffffffffffffffffffffffff1614610524576040517f08c379a000000000000000000000000000000000000000000000000000000000815260040161051b906135be565b60405180910390fd5b6000808473ffffffffffffffffffffffffffffffffffffffff1673ffffffffffffffffffffffffffffffffffffffff16815260200190815260200160002060020160009054906101000a900460ff166105b2576040517f08c379a00000000000000000000000000000000000000000000000000000000081526004016105a99061353e565b60405180910390fd5b6000808473ffffffffffffffffffffffffffffffffffffffff1673ffffffffffffffffffffffffffffffffffffffff16815260200190815260200160002060070160009054906101000a900460ff16610640576040517f08c379a0000000000000000000000000000000000000000000000000000000008152600401610637906134de565b60405180910390fd5b81816000808673ffffffffffffffffffffffffffffffffffffffff1673ffffffffffffffffffffffffffffffffffffffff1681526020019081526020016000206008019190610690929190612659565b506001600860036101000a81548160ff0219169083151502179055507ffb464608033b60875ab9c98995cb5497a77fed0a9ab70543ba6242414d42e07c8383836040516106df939291906132af565b60405180910390a1505050565b600060205280600052604060002060009150905080600001805461070f9061387f565b80601f016020809104026020016040519081016040528092919081815260200182805461073b9061387f565b80156107885780601f1061075d57610100808354040283529160200191610788565b820191906000526020600020905b81548152906001019060200180831161076b57829003601f168201915b5050505050908060010154908060020160009054906101000a900460ff16908060030180546107b69061387f565b80601f01602080910402602001604051908101604052809291908181526020018280546107e29061387f565b801561082f5780601f106108045761010080835404028352916020019161082f565b820191906000526020600020905b81548152906001019060200180831161081257829003601f168201915b5050505050908060040154908060050160009054906101000a900460ff16908060060154908060070160009054906101000a900460ff16908060080180546108769061387f565b80601f01602080910402602001604051908101604052809291908181526020018280546108a29061387f565b80156108ef5780601f106108c4576101008083540402835291602001916108ef565b820191906000526020600020905b8154815290600101906020018083116108d257829003601f168201915b5050505050905089565b6001818154811061090957600080fd5b906000526020600020016000915054906101000a900473ffffffffffffffffffffffffffffffffffffffff1681565b60055481565b600360009054906101000a900473ffffffffffffffffffffffffffffffffffffffff1673ffffffffffffffffffffffffffffffffffffffff163373ffffffffffffffffffffffffffffffffffffffff16146109ce576040517f08c379a00000000000000000000000000000000000000000000000000000000081526004016109c5906135be565b60405180910390fd5b6000808473ffffffffffffffffffffffffffffffffffffffff1673ffffffffffffffffffffffffffffffffffffffff16815260200190815260200160002060020160009054906101000a900460ff1615610a5d576040517f08c379a0000000000000000000000000000000000000000000000000000000008152600401610a54906134fe565b60405180910390fd5b6002805410610aa1576040517f08c379a0000000000000000000000000000000000000000000000000000000008152600401610a989061365e565b60405180910390fd5b60405180610120016040528083838080601f016020809104026020016040519081016040528093929190818152602001838380828437600081840152601f19601f820116905080830192505050505050508152602001600081526020016001151581526020016040518060200160405280600081525081526020016000815260200160001515815260200160008152602001600015158152602001604051806020016040528060008152508152506000808573ffffffffffffffffffffffffffffffffffffffff1673ffffffffffffffffffffffffffffffffffffffff1681526020019081526020016000206000820151816000019080519060200190610ba99291906126df565b506020820151816001015560408201518160020160006101000a81548160ff0219169083151502179055506060820151816003019080519060200190610bf09291906126df565b506080820151816004015560a08201518160050160006101000a81548160ff02191690831515021790555060c0820151816006015560e08201518160070160006101000a81548160ff021916908315150217905550610100820151816008019080519060200190610c629291906126df565b509050506001839080600181540180825580915050600190039060005260206000200160009091909190916101000a81548173ffffffffffffffffffffffffffffffffffffffff021916908373ffffffffffffffffffffffffffffffffffffffff16021790555060026000815480929190610cdc906138b1565b91905055507fe11711cd714e06fbbbea301a8e90822f2f2ea4808e37e3adf06038f33c53ff2783604051610d109190613226565b60405180910390a1505050565b60025481565b600860039054906101000a900460ff1681565b6000803373ffffffffffffffffffffffffffffffffffffffff1673ffffffffffffffffffffffffffffffffffffffff16815260200190815260200160002060020160009054906101000a900460ff16610dc4576040517f08c379a0000000000000000000000000000000000000000000000000000000008152600401610dbb9061353e565b60405180910390fd5b6000803373ffffffffffffffffffffffffffffffffffffffff1673ffffffffffffffffffffffffffffffffffffffff16815260200190815260200160002060050160009054906101000a900460ff1615610e53576040517f08c379a0000000000000000000000000000000000000000000000000000000008152600401610e4a9061357e565b60405180910390fd5b67016345785d8a0000341015610e9e576040517f08c379a0000000000000000000000000000000000000000000000000000000008152600401610e95906135de565b60405180910390fd5b81816000803373ffffffffffffffffffffffffffffffffffffffff1673ffffffffffffffffffffffffffffffffffffffff1681526020019081526020016000206003019190610eee929190612659565b50346000803373ffffffffffffffffffffffffffffffffffffffff1673ffffffffffffffffffffffffffffffffffffffff1681526020019081526020016000206004018190555060016000803373ffffffffffffffffffffffffffffffffffffffff1673ffffffffffffffffffffffffffffffffffffffff16815260200190815260200160002060050160006101000a81548160ff02191690831515021790555060076000815480929190610fa2906138b1565b91905055503373ffffffffffffffffffffffffffffffffffffffff167f3a16e14c25fb4e11c9175367223bf2a5fb6e2ca367e138067a43a3b38536bec2838334600654604051610ff5949392919061335c565b60405180910390a2600254600754141561105e576001600860006101000a81548160ff0219169083151502179055507f7f05c6278dfad94f9f8275670115f24a4bca4504bb3c8449d0d0fc1c83fb3b7660065460405161105591906136c0565b60405180910390a15b5050565b60065481565b60045481565b60075481565b61107c612765565b6000808373ffffffffffffffffffffffffffffffffffffffff1673ffffffffffffffffffffffffffffffffffffffff16815260200190815260200160002060020160009054906101000a900460ff1661110a576040517f08c379a00000000000000000000000000000000000000000000000000000000081526004016111019061353e565b60405180910390fd5b6000808373ffffffffffffffffffffffffffffffffffffffff1673ffffffffffffffffffffffffffffffffffffffff168152602001908152602001600020604051806101200160405290816000820180546111649061387f565b80601f01602080910402602001604051908101604052809291908181526020018280546111909061387f565b80156111dd5780601f106111b2576101008083540402835291602001916111dd565b820191906000526020600020905b8154815290600101906020018083116111c057829003601f168201915b50505050508152602001600182015481526020016002820160009054906101000a900460ff1615151515815260200160038201805461121b9061387f565b80601f01602080910402602001604051908101604052809291908181526020018280546112479061387f565b80156112945780601f1061126957610100808354040283529160200191611294565b820191906000526020600020905b81548152906001019060200180831161127757829003601f168201915b50505050508152602001600482015481526020016005820160009054906101000a900460ff16151515158152602001600682015481526020016007820160009054906101000a900460ff161515151581526020016008820180546112f79061387f565b80601f01602080910402602001604051908101604052809291908181526020018280546113239061387f565b80156113705780601f1061134557610100808354040283529160200191611370565b820191906000526020600020905b81548152906001019060200180831161135357829003601f168201915b5050505050815250509050919050565b600360009054906101000a900473ffffffffffffffffffffffffffffffffffffffff1673ffffffffffffffffffffffffffffffffffffffff163373ffffffffffffffffffffffffffffffffffffffff1614611410576040517f08c379a0000000000000000000000000000000000000000000000000000000008152600401611407906135be565b60405180910390fd5b6000808273ffffffffffffffffffffffffffffffffffffffff1673ffffffffffffffffffffffffffffffffffffffff16815260200190815260200160002060020160009054906101000a900460ff1661149e576040517f08c379a00000000000000000000000000000000000000000000000000000000081526004016114959061347e565b60405180910390fd5b6000808273ffffffffffffffffffffffffffffffffffffffff1673ffffffffffffffffffffffffffffffffffffffff168152602001908152602001600020600080820160006114ed91906127b7565b60018201600090556002820160006101000a81549060ff021916905560038201600061151991906127b7565b60048201600090556005820160006101000a81549060ff021916905560068201600090556007820160006101000a81549060ff021916905560088201600061156191906127b7565b505060005b600180549050811015611786578173ffffffffffffffffffffffffffffffffffffffff16600182815481106115c4577f4e487b7100000000000000000000000000000000000000000000000000000000600052603260045260246000fd5b9060005260206000200160009054906101000a900473ffffffffffffffffffffffffffffffffffffffff1673ffffffffffffffffffffffffffffffffffffffff16141561177357600180808054905061161d9190613769565b81548110611654577f4e487b7100000000000000000000000000000000000000000000000000000000600052603260045260246000fd5b9060005260206000200160009054906101000a900473ffffffffffffffffffffffffffffffffffffffff16600182815481106116b9577f4e487b7100000000000000000000000000000000000000000000000000000000600052603260045260246000fd5b9060005260206000200160006101000a81548173ffffffffffffffffffffffffffffffffffffffff021916908373ffffffffffffffffffffffffffffffffffffffff1602179055506001805480611739577f4e487b7100000000000000000000000000000000000000000000000000000000600052603160045260246000fd5b6001900381819060005260206000200160006101000a81549073ffffffffffffffffffffffffffffffffffffffff02191690559055611786565b808061177e906138b1565b915050611566565b506002600081548092919061179a90613855565b91905055507fee7534f4d762753f76fdc4d0d00428661277318878dea11262af92123d5a44b3816040516117ce9190613226565b60405180910390a150565b600360009054906101000a900473ffffffffffffffffffffffffffffffffffffffff1681565b600360009054906101000a900473ffffffffffffffffffffffffffffffffffffffff1673ffffffffffffffffffffffffffffffffffffffff163373ffffffffffffffffffffffffffffffffffffffff161461188f576040517f08c379a0000000000000000000000000000000000000000000000000000000008152600401611886906135be565b60405180910390fd5b600860019054906101000a900460ff166118de576040517f08c379a00000000000000000000000000000000000000000000000000000000081526004016118d59061343e565b60405180910390fd5b600860029054906101000a900460ff161561192e576040517f08c379a00000000000000000000000000000000000000000000000000000000081526004016119259061349e565b60405180910390fd5b60005b600180549050811015611de65760006001828154811061197a577f4e487b7100000000000000000000000000000000000000000000000000000000600052603260045260246000fd5b9060005260206000200160009054906101000a900473ffffffffffffffffffffffffffffffffffffffff16905060008060008373ffffffffffffffffffffffffffffffffffffffff1673ffffffffffffffffffffffffffffffffffffffff16815260200190815260200160002090506000816006015490506000826004015490506064821315611bdb57600081600554611a149190613713565b9050600454811115611a5b576040517f08c379a0000000000000000000000000000000000000000000000000000000008152600401611a529061351e565b60405180910390fd5b8060046000828254611a6d9190613769565b9250508190555060008573ffffffffffffffffffffffffffffffffffffffff1682604051611a9a90613211565b60006040518083038185875af1925050503d8060008114611ad7576040519150601f19603f3d011682016040523d82523d6000602084013e611adc565b606091505b5050905080611b20576040517f08c379a0000000000000000000000000000000000000000000000000000000008152600401611b179061355e565b60405180910390fd5b6001856001016000828254611b359190613713565b9250508190555060018560070160006101000a81548160ff0219169083151502179055507f291e8ba3c0f4b0bd86e6e2346fcee1e7ca0975b1cc1886bfbc722d34f3f24d918683600654604051611b8e9392919061330a565b60405180910390a17f5712e29af9e0cda36f7084338830170ccb1f1c4986d27fc1d51d1f53562b9e66866001600654604051611bcc93929190613241565b60405180910390a15050611dcf565b7fffffffffffffffffffffffffffffffffffffffffffffffffffffffffffffff9c821215611ce5578060046000828254611c159190613713565b92505081905550600083600101541115611c46576001836001016000828254611c3e9190613769565b925050819055505b7f79518e3d01d758cc6d21a6b9e3498ab383ef7832972db6eae679df281c9bfc9c8482600654604051611c7b9392919061330a565b60405180910390a17f5712e29af9e0cda36f7084338830170ccb1f1c4986d27fc1d51d1f53562b9e66847fffffffffffffffffffffffffffffffffffffffffffffffffffffffffffffffff600654604051611cd893929190613278565b60405180910390a1611dce565b60008473ffffffffffffffffffffffffffffffffffffffff1682604051611d0b90613211565b60006040518083038185875af1925050503d8060008114611d48576040519150601f19603f3d011682016040523d82523d6000602084013e611d4d565b606091505b5050905080611d91576040517f08c379a0000000000000000000000000000000000000000000000000000000008152600401611d88906134be565b60405180910390fd5b7f1a0d6bcd051240b952d12aab6d87c346406445fa7de51ad676d815f7626e194485600654604051611dc49291906132e1565b60405180910390a1505b5b505050508080611dde906138b1565b915050611931565b506001600860026101000a81548160ff021916908315150217905550565b600860019054906101000a900460ff1681565b600360009054906101000a900473ffffffffffffffffffffffffffffffffffffffff1673ffffffffffffffffffffffffffffffffffffffff163373ffffffffffffffffffffffffffffffffffffffff1614611ea7576040517f08c379a0000000000000000000000000000000000000000000000000000000008152600401611e9e906135be565b60405180910390fd5b600860039054906101000a900460ff16611ef6576040517f08c379a0000000000000000000000000000000000000000000000000000000008152600401611eed9061363e565b60405180910390fd5b600060025411611f3b576040517f08c379a0000000000000000000000000000000000000000000000000000000008152600401611f329061367e565b60405180910390fd5b60005b6001805490508110156120a957600060018281548110611f87577f4e487b7100000000000000000000000000000000000000000000000000000000600052603260045260246000fd5b9060005260206000200160009054906101000a900473ffffffffffffffffffffffffffffffffffffffff16905060008060008373ffffffffffffffffffffffffffffffffffffffff1673ffffffffffffffffffffffffffffffffffffffff16815260200190815260200160002090506040518060200160405280600081525081600301908051906020019061201d9291906126df565b506000816004018190555060008160050160006101000a81548160ff0219169083151502179055506000816006018190555060008160070160006101000a81548160ff021916908315150217905550604051806020016040528060008152508160080190805190602001906120939291906126df565b50505080806120a1906138b1565b915050611f3e565b5060006007819055506000600860006101000a81548160ff0219169083151502179055506000600860016101000a81548160ff0219169083151502179055506000600860026101000a81548160ff02191690831515021790555060066000815480929190612116906138b1565b91905055507fae4cf40c31a833f14b2aee71da8cb55d5fd1944a9ed5b7696022328921f6e31760065460405161214c91906136c0565b60405180910390a1565b600360009054906101000a900473ffffffffffffffffffffffffffffffffffffffff1673ffffffffffffffffffffffffffffffffffffffff163373ffffffffffffffffffffffffffffffffffffffff16146121e6576040517f08c379a00000000000000000000000000000000000000000000000000000000081526004016121dd906135be565b60405180910390fd5b600860009054906101000a900460ff16612235576040517f08c379a000000000000000000000000000000000000000000000000000000000815260040161222c9061361e565b60405180910390fd5b600860019054906101000a900460ff1615612285576040517f08c379a000000000000000000000000000000000000000000000000000000000815260040161227c9061345e565b60405180910390fd5b60025484849050146122cc576040517f08c379a00000000000000000000000000000000000000000000000000000000081526004016122c39061359e565b60405180910390fd5b818190508484905014612314576040517f08c379a000000000000000000000000000000000000000000000000000000000815260040161230b9061359e565b60405180910390fd5b60005b848490508110156124e25760008086868481811061235e577f4e487b7100000000000000000000000000000000000000000000000000000000600052603260045260246000fd5b9050602002016020810190612373919061291c565b73ffffffffffffffffffffffffffffffffffffffff1673ffffffffffffffffffffffffffffffffffffffff16815260200190815260200160002060020160009054906101000a900460ff166123fd576040517f08c379a00000000000000000000000000000000000000000000000000000000081526004016123f49061353e565b60405180910390fd5b828282818110612436577f4e487b7100000000000000000000000000000000000000000000000000000000600052603260045260246000fd5b90506020020135600080878785818110612479577f4e487b7100000000000000000000000000000000000000000000000000000000600052603260045260246000fd5b905060200201602081019061248e919061291c565b73ffffffffffffffffffffffffffffffffffffffff1673ffffffffffffffffffffffffffffffffffffffff1681526020019081526020016000206006018190555080806124da906138b1565b915050612317565b506001600860016101000a81548160ff0219169083151502179055507f3e20f33b2fbf5ce74cb8f64aa3a5f4ad0913e4c7d10a2bf1478ba2270d4d88f660065460405161252f91906136c0565b60405180910390a161253f6117ff565b50505050565b600360009054906101000a900473ffffffffffffffffffffffffffffffffffffffff1673ffffffffffffffffffffffffffffffffffffffff163373ffffffffffffffffffffffffffffffffffffffff16146125d5576040517f08c379a00000000000000000000000000000000000000000000000000000000081526004016125cc906135be565b60405180910390fd5b60003411612618576040517f08c379a000000000000000000000000000000000000000000000000000000000815260040161260f906135fe565b60405180910390fd5b346004600082825461262a9190613713565b92505081905550565b600860029054906101000a900460ff1681565b600860009054906101000a900460ff1681565b8280546126659061387f565b90600052602060002090601f01602090048101928261268757600085556126ce565b82601f106126a057803560ff19168380011785556126ce565b828001600101855582156126ce579182015b828111156126cd5782358255916020019190600101906126b2565b5b5090506126db91906127f7565b5090565b8280546126eb9061387f565b90600052602060002090601f01602090048101928261270d5760008555612754565b82601f1061272657805160ff1916838001178555612754565b82800160010185558215612754579182015b82811115612753578251825591602001919060010190612738565b5b50905061276191906127f7565b5090565b6040518061012001604052806060815260200160008152602001600015158152602001606081526020016000815260200160001515815260200160008152602001600015158152602001606081525090565b5080546127c39061387f565b6000825580601f106127d557506127f4565b601f0160209004906000526020600020908101906127f391906127f7565b5b50565b5b808211156128105760008160009055506001016127f8565b5090565b60008135905061282381613969565b92915050565b60008083601f84011261283b57600080fd5b8235905067ffffffffffffffff81111561285457600080fd5b60208301915083602082028301111561286c57600080fd5b9250929050565b60008083601f84011261288557600080fd5b8235905067ffffffffffffffff81111561289e57600080fd5b6020830191508360208202830111156128b657600080fd5b9250929050565b60008083601f8401126128cf57600080fd5b8235905067ffffffffffffffff8111156128e857600080fd5b60208301915083600182028301111561290057600080fd5b9250929050565b60008135905061291681613980565b92915050565b60006020828403121561292e57600080fd5b600061293c84828501612814565b91505092915050565b60008060006040848603121561295a57600080fd5b600061296886828701612814565b935050602084013567ffffffffffffffff81111561298557600080fd5b612991868287016128bd565b92509250509250925092565b600080600080604085870312156129b357600080fd5b600085013567ffffffffffffffff8111156129cd57600080fd5b6129d987828801612829565b9450945050602085013567ffffffffffffffff8111156129f857600080fd5b612a0487828801612873565b925092505092959194509250565b60008060208385031215612a2557600080fd5b600083013567ffffffffffffffff811115612a3f57600080fd5b612a4b858286016128bd565b92509250509250929050565b600060208284031215612a6957600080fd5b6000612a7784828501612907565b91505092915050565b612a898161379d565b82525050565b612a98816137af565b82525050565b612aa7816137af565b82525050565b612ab6816137bb565b82525050565b612ac5816137bb565b82525050565b612ad4816137ef565b82525050565b612ae381613801565b82525050565b6000612af58385613702565b9350612b02838584613813565b612b0b83613958565b840190509392505050565b6000612b21826136db565b612b2b81856136f1565b9350612b3b818560208601613822565b612b4481613958565b840191505092915050565b6000612b5a826136db565b612b648185613702565b9350612b74818560208601613822565b612b7d81613958565b840191505092915050565b6000612b95601d83613702565b91507f4576616c756174696f6e73206e6f74207375626d6974746564207965740000006000830152602082019050919050565b6000612bd5601d83613702565b91507f4576616c756174696f6e7320616c7265616479207375626d69747465640000006000830152602082019050919050565b6000612c15600e83613702565b91507f4e6f7420726567697374657265640000000000000000000000000000000000006000830152602082019050919050565b6000612c55601f83613702565b91507f5265776172642f70756e69736820616c726561647920636f6d706c65746564006000830152602082019050919050565b6000612c95601383613702565b91507f526566756e64207374616b65206661696c6564000000000000000000000000006000830152602082019050919050565b6000612cd5603083613702565b91507f5061727469636970616e74206e6f74207065726d697474656420746f2061636360008301527f65737320676c6f62616c206d6f64656c000000000000000000000000000000006020830152604082019050919050565b6000612d3b601283613702565b91507f416c7265616479207265676973746572656400000000000000000000000000006000830152602082019050919050565b6000612d7b602183613702565b91507f496e73756666696369656e742066756e647320696e2072657761726420706f6f60008301527f6c000000000000000000000000000000000000000000000000000000000000006020830152604082019050919050565b6000612de1601a83613702565b91507f5061727469636970616e74206e6f7420726567697374657265640000000000006000830152602082019050919050565b6000612e21600e83613702565b91507f5061796d656e74206661696c65640000000000000000000000000000000000006000830152602082019050919050565b6000612e61601183613702565b91507f416c7265616479207375626d69747465640000000000000000000000000000006000830152602082019050919050565b6000612ea1600d83613702565b91507f496e76616c696420696e707574000000000000000000000000000000000000006000830152602082019050919050565b6000612ee1601283613702565b91507f4e6f7420636f6e7472616374206f776e657200000000000000000000000000006000830152602082019050919050565b6000612f216000836136e6565b9150600082019050919050565b6000612f3b600d83613702565b91507f5374616b6520746f6f206c6f77000000000000000000000000000000000000006000830152602082019050919050565b6000612f7b601283613702565b91507f4e6f2066756e6473206465706f736974656400000000000000000000000000006000830152602082019050919050565b6000612fbb602383613702565b91507f4e6f7420616c6c207061727469636970616e74732068617665207375626d697460008301527f74656400000000000000000000000000000000000000000000000000000000006020830152604082019050919050565b6000613021602583613702565b91507f476c6f62616c206d6f64656c732068617665206e6f74206265656e207375626d60008301527f69747465640000000000000000000000000000000000000000000000000000006020830152604082019050919050565b6000613087602683613702565b91507f4d6178696d756d206e756d626572206f66207061727469636970616e7473207260008301527f65616368656400000000000000000000000000000000000000000000000000006020830152604082019050919050565b60006130ed601a83613702565b91507f4e6f207061727469636970616e747320726567697374657265640000000000006000830152602082019050919050565b600061012083016000830151848203600086015261313e8282612b16565b915050602083015161315360208601826131f3565b5060408301516131666040860182612a8f565b506060830151848203606086015261317e8282612b16565b915050608083015161319360808601826131f3565b5060a08301516131a660a0860182612a8f565b5060c08301516131b960c0860182612aad565b5060e08301516131cc60e0860182612a8f565b506101008301518482036101008601526131e68282612b16565b9150508091505092915050565b6131fc816137e5565b82525050565b61320b816137e5565b82525050565b600061321c82612f14565b9150819050919050565b600060208201905061323b6000830184612a80565b92915050565b60006060820190506132566000830186612a80565b6132636020830185612acb565b6132706040830184613202565b949350505050565b600060608201905061328d6000830186612a80565b61329a6020830185612ada565b6132a76040830184613202565b949350505050565b60006040820190506132c46000830186612a80565b81810360208301526132d7818486612ae9565b9050949350505050565b60006040820190506132f66000830185612a80565b6133036020830184613202565b9392505050565b600060608201905061331f6000830186612a80565b61332c6020830185613202565b6133396040830184613202565b949350505050565b60006020820190506133566000830184612a9e565b92915050565b60006060820190508181036000830152613377818688612ae9565b90506133866020830185613202565b6133936040830184613202565b95945050505050565b60006101208201905081810360008301526133b7818c612b4f565b90506133c6602083018b613202565b6133d3604083018a612a9e565b81810360608301526133e58189612b4f565b90506133f46080830188613202565b61340160a0830187612a9e565b61340e60c0830186612abc565b61341b60e0830185612a9e565b81810361010083015261342e8184612b4f565b90509a9950505050505050505050565b6000602082019050818103600083015261345781612b88565b9050919050565b6000602082019050818103600083015261347781612bc8565b9050919050565b6000602082019050818103600083015261349781612c08565b9050919050565b600060208201905081810360008301526134b781612c48565b9050919050565b600060208201905081810360008301526134d781612c88565b9050919050565b600060208201905081810360008301526134f781612cc8565b9050919050565b6000602082019050818103600083015261351781612d2e565b9050919050565b6000602082019050818103600083015261353781612d6e565b9050919050565b6000602082019050818103600083015261355781612dd4565b9050919050565b6000602082019050818103600083015261357781612e14565b9050919050565b6000602082019050818103600083015261359781612e54565b9050919050565b600060208201905081810360008301526135b781612e94565b9050919050565b600060208201905081810360008301526135d781612ed4565b9050919050565b600060208201905081810360008301526135f781612f2e565b9050919050565b6000602082019050818103600083015261361781612f6e565b9050919050565b6000602082019050818103600083015261363781612fae565b9050919050565b6000602082019050818103600083015261365781613014565b9050919050565b600060208201905081810360008301526136778161307a565b9050919050565b60006020820190508181036000830152613697816130e0565b9050919050565b600060208201905081810360008301526136b88184613120565b905092915050565b60006020820190506136d56000830184613202565b92915050565b600081519050919050565b600081905092915050565b600082825260208201905092915050565b600082825260208201905092915050565b600061371e826137e5565b9150613729836137e5565b9250827fffffffffffffffffffffffffffffffffffffffffffffffffffffffffffffffff0382111561375e5761375d6138fa565b5b828201905092915050565b6000613774826137e5565b915061377f836137e5565b925082821015613792576137916138fa565b5b828203905092915050565b60006137a8826137c5565b9050919050565b60008115159050919050565b6000819050919050565b600073ffffffffffffffffffffffffffffffffffffffff82169050919050565b6000819050919050565b60006137fa826137bb565b9050919050565b600061380c826137bb565b9050919050565b82818337600083830152505050565b60005b83811015613840578082015181840152602081019050613825565b8381111561384f576000848401525b50505050565b6000613860826137e5565b91506000821415613874576138736138fa565b5b600182039050919050565b6000600282049050600182168061389757607f821691505b602082108114156138ab576138aa613929565b5b50919050565b60006138bc826137e5565b91507fffffffffffffffffffffffffffffffffffffffffffffffffffffffffffffffff8214156138ef576138ee6138fa565b5b600182019050919050565b7f4e487b7100000000000000000000000000000000000000000000000000000000600052601160045260246000fd5b7f4e487b7100000000000000000000000000000000000000000000000000000000600052602260045260246000fd5b6000601f19601f8301169050919050565b6139728161379d565b811461397d57600080fd5b50565b613989816137e5565b811461399457600080fd5b5056fea2646970667358221220180a1497fa20f70ca2f4435c2b78584a2fbb075e65f55d29f3938255a9e9a78564736f6c63430008000033",
  "immutableReferences": {},
  "source": "// SPDX-License-Identifier: MIT\r\npragma solidity ^0.8.0;\r\n\r\n\r\ncontract IncentiveScheme {\r\n\r\n    struct Participant {\r\n        string name;\r\n        uint256 reputationScore;\r\n        bool exists;\r\n        string gradientCID;\r\n        uint256 stake;\r\n        bool submitted;\r\n        int256 evaluation;\r\n        bool permittedToGlobalModel;\r\n        string globalModelCID;\r\n    }\r\n\r\n    mapping(address => Participant) public participants;\r\n    address[] public participantAddrs;\r\n    uint256 public participantCount;\r\n    address public owner;\r\n    uint256 public rewardPool;\r\n    uint256 public reward = 0.1 ether;\r\n    uint256 public roundNumber;\r\n    uint256 public submissionCount = 0;\r\n    bool public allSubmitted = false;\r\n    bool public evaluationsSubmitted = false;\r\n    bool public rewardPunishCompleted = false;\r\n    bool public globalModelSubmitted = false;\r\n\r\n    event ParticipantRegistered(address participant);\r\n    event ParticipantUnregistered(address participant);\r\n    event GradientSubmitted(address indexed participant, string gradientCID, uint256 stake, uint256 roundNumber);\r\n    event AllParticipantsSubmitted(uint256 roundNumber);\r\n    event EvaluationsSubmitted(uint256 roundNumber);\r\n    event NewRoundStarted(uint256 roundNumber);\r\n    event Rewarded(address participant, uint256 amount, uint256 roundNumber);\r\n    event Punished(address participant, uint256 amount, uint256 roundNumber);\r\n    event NeutralContribution(address participant, uint256 roundNumber);\r\n    event ReputationUpdated(address participant, int256 reputationChange, uint256 roundNumber);\r\n    event GlobalModelSubmitted(address participant, string cid);\r\n\r\n    constructor() payable {\r\n        owner = msg.sender;\r\n        roundNumber = 1;\r\n        rewardPool = msg.value;\r\n    }\r\n\r\n    modifier onlyOwner() {\r\n        require(msg.sender == owner, \"Not contract owner\");\r\n        _;\r\n    }\r\n\r\n    /**\r\n     * @dev Deposit funds to reward pool.\r\n     */\r\n    function deposit() external payable onlyOwner {\r\n        require(msg.value > 0, \"No funds deposited\");\r\n        rewardPool += msg.value;\r\n    }\r\n\r\n    /**\r\n     * @dev Register a new participant.\r\n     */\r\n    function registerParticipant(address addr, string calldata name) public onlyOwner {\r\n        require(!participants[addr].exists, \"Already registered\");\r\n        require(participantCount < 2, \"Maximum number of participants reached\");\r\n\r\n        participants[addr] = Participant({\r\n            name: name,\r\n            reputationScore: 0,\r\n            exists: true,\r\n            gradientCID: \"\",\r\n            stake: 0,\r\n            submitted: false,\r\n            evaluation: 0,\r\n            permittedToGlobalModel: false,\r\n            globalModelCID: \"\"\r\n        });\r\n\r\n        participantAddrs.push(addr);\r\n        participantCount++;\r\n        emit ParticipantRegistered(addr);\r\n    }\r\n\r\n    /**\r\n     * @dev Unregister a participant.\r\n     */\r\n    function unregisterParticipant(address addr) public onlyOwner {\r\n        require(participants[addr].exists, \"Not registered\");\r\n\r\n        delete participants[addr];\r\n        for (uint i = 0; i < participantAddrs.length; i++) {\r\n            if (participantAddrs[i] == addr) {\r\n                participantAddrs[i] = participantAddrs[participantAddrs.length - 1];\r\n                participantAddrs.pop();\r\n                break;\r\n            }\r\n        }\r\n        participantCount--;\r\n        emit ParticipantUnregistered(addr);\r\n    }\r\n\r\n    /**\r\n     * @dev Get participant details.\r\n     */\r\n    function getParticipant(address addr) public view returns (Participant memory) {\r\n        require(participants[addr].exists, \"Participant not registered\");\r\n        return participants[addr];\r\n    }\r\n\r\n    /**\r\n     * @dev Submit masked gradient.\r\n     */\r\n    function submitGradientUpdate(string calldata gradientCID) external payable {\r\n        require(participants[msg.sender].exists, \"Participant not registered\");\r\n        require(!participants[msg.sender].submitted, \"Already submitted\");\r\n        require(msg.value >= 0.1 ether, \"Stake too low\");\r\n\r\n        participants[msg.sender].gradientCID = gradientCID;\r\n        participants[msg.sender].stake = msg.value;\r\n        participants[msg.sender].submitted = true;\r\n        submissionCount++;\r\n\r\n        emit GradientSubmitted(msg.sender, gradientCID, msg.value, roundNumber);\r\n\r\n        if (submissionCount == participantCount) {\r\n            allSubmitted = true;\r\n            emit AllParticipantsSubmitted(roundNumber);\r\n        }\r\n    }\r\n    \r\n    /**\r\n     * @dev Submit contribution evaluations.\r\n     */\r\n    function submitContributionEvaluations(address[] calldata addresses, int256[] calldata evaluations) external onlyOwner {\r\n        require(allSubmitted, \"Not all participants have submitted\");\r\n        require(!evaluationsSubmitted, \"Evaluations already submitted\");\r\n        require(addresses.length == participantCount, \"Invalid input\");\r\n        require(addresses.length == evaluations.length, \"Invalid input\");\r\n\r\n        for (uint i = 0; i < addresses.length; i++) {\r\n            require(participants[addresses[i]].exists, \"Participant not registered\");\r\n            participants[addresses[i]].evaluation = evaluations[i];\r\n        }\r\n\r\n        evaluationsSubmitted = true;\r\n        emit EvaluationsSubmitted(roundNumber);\r\n\r\n        rewardPunish();\r\n    }\r\n\r\n    /**\r\n     * @dev Reward or punish accordingly. Update reputation scores.\r\n     */\r\n    function rewardPunish() public onlyOwner {\r\n        require(evaluationsSubmitted, \"Evaluations not submitted yet\");\r\n        require(!rewardPunishCompleted, \"Reward/punish already completed\");\r\n    \r\n        for (uint i = 0; i < participantAddrs.length; i++) {\r\n            address pAddr = participantAddrs[i];\r\n            Participant storage p = participants[pAddr];\r\n            int256 pEvaluation = p.evaluation;\r\n            uint256 pStake = p.stake;\r\n\r\n            if(pEvaluation > 100) { // 0.1 or 10% improvement\r\n                uint256 totalPayout = reward + pStake;\r\n                require(totalPayout <= rewardPool, \"Insufficient funds in reward pool\");\r\n\r\n                rewardPool -= totalPayout;\r\n\r\n                (bool success, ) = pAddr.call{value: totalPayout}(\"\");\r\n                require(success, \"Payment failed\");\r\n\r\n                p.reputationScore += 1;\r\n                p.permittedToGlobalModel = true;\r\n\r\n                emit Rewarded(pAddr, totalPayout, roundNumber);\r\n                emit ReputationUpdated(pAddr, 1, roundNumber);\r\n\r\n            } else if(pEvaluation < -100) { // 0.1 or 10% degradation\r\n                rewardPool += pStake;\r\n\r\n                if(p.reputationScore > 0) {\r\n                    p.reputationScore -= 1; \r\n                }\r\n\r\n                emit Punished(pAddr, pStake, roundNumber);\r\n                emit ReputationUpdated(pAddr, -1, roundNumber);\r\n\r\n            } else { // within neutral range\r\n                (bool success, ) = pAddr.call{value: pStake}(\"\");\r\n                require(success, \"Refund stake failed\");\r\n\r\n                emit NeutralContribution(pAddr, roundNumber);\r\n            }\r\n        }\r\n\r\n        rewardPunishCompleted = true;\r\n    }\r\n\r\n    /**\r\n     * @dev Submit the global model CID for a participant. Encrypted with participants key.\r\n     */\r\n    function submitGlobalModelCID(address participant, string calldata cid) external onlyOwner {\r\n        require(participants[participant].exists, \"Participant not registered\");\r\n        require(participants[participant].permittedToGlobalModel, \"Participant not permitted to access global model\");\r\n\r\n        participants[participant].globalModelCID = cid;\r\n        globalModelSubmitted = true;\r\n\r\n        emit GlobalModelSubmitted(participant, cid);\r\n    }\r\n\r\n    /**\r\n     * @dev Start new round.\r\n     */\r\n    function newRound() public onlyOwner {\r\n        require(globalModelSubmitted, \"Global models have not been submitted\");\r\n        require(participantCount > 0, \"No participants registered\");\r\n\r\n        for (uint i = 0; i < participantAddrs.length; i++) {\r\n            address pAddr = participantAddrs[i];\r\n            Participant storage p = participants[pAddr];\r\n\r\n            p.gradientCID = \"\";\r\n            p.stake = 0;\r\n            p.submitted = false;\r\n            p.evaluation = 0;\r\n            p.permittedToGlobalModel = false;\r\n            p.globalModelCID = \"\";\r\n        }\r\n\r\n        submissionCount = 0;\r\n        allSubmitted = false;\r\n        evaluationsSubmitted = false;\r\n        rewardPunishCompleted = false;\r\n        roundNumber++;\r\n\r\n        emit NewRoundStarted(roundNumber);\r\n    }\r\n\r\n}\r\n",
  "sourcePath": "C:\\Users\\wjjm5\\Documents\\University\\Stage 4\\CSC8202 Group project Security\\SecureFederatedLearning\\blockchain\\contracts\\Incentive.sol",
  "compiler": {
    "name": "solc",
    "version": "0.8.0+commit.c7dfd78e.Emscripten.clang"
  },
  "schemaVersion": "3.4.16",
  "updatedAt": "2025-03-20T19:47:00.644Z",
  "networkType": "ethereum",
  "devdoc": {
    "kind": "dev",
    "methods": {
      "deposit()": {
        "details": "Deposit funds to reward pool."
      },
      "getParticipant(address)": {
        "details": "Get participant details."
      },
      "newRound()": {
        "details": "Start new round."
      },
      "registerParticipant(address,string)": {
        "details": "Register a new participant."
      },
      "rewardPunish()": {
        "details": "Reward or punish accordingly. Update reputation scores."
      },
      "submitContributionEvaluations(address[],int256[])": {
        "details": "Submit contribution evaluations."
      },
      "submitGlobalModelCID(address,string)": {
        "details": "Submit the global model CID for a participant. Encrypted with participants key."
      },
      "submitGradientUpdate(string)": {
        "details": "Submit masked gradient."
      },
      "unregisterParticipant(address)": {
        "details": "Unregister a participant."
      }
    },
    "version": 1
  },
  "userdoc": {
    "kind": "user",
    "methods": {},
    "version": 1
  }
}