{
  "contractName": "IncentiveScheme",
  "abi": [
    {
      "inputs": [],
      "stateMutability": "payable",
      "type": "constructor",
      "payable": true
    },
    {
      "anonymous": false,
      "inputs": [
        {
          "indexed": false,
          "internalType": "uint256",
          "name": "roundNumber",
          "type": "uint256"
        }
      ],
      "name": "AllParticipantsSubmitted",
      "type": "event"
    },
    {
      "anonymous": false,
      "inputs": [
        {
          "indexed": false,
          "internalType": "uint256",
          "name": "roundNumber",
          "type": "uint256"
        }
      ],
      "name": "EvaluationsSubmitted",
      "type": "event"
    },
    {
      "anonymous": false,
      "inputs": [
        {
          "indexed": false,
          "internalType": "address",
          "name": "participant",
          "type": "address"
        },
        {
          "indexed": false,
          "internalType": "string",
          "name": "cid",
          "type": "string"
        }
      ],
      "name": "GlobalModelSubmitted",
      "type": "event"
    },
    {
      "anonymous": false,
      "inputs": [
        {
          "indexed": true,
          "internalType": "address",
          "name": "participant",
          "type": "address"
        },
        {
          "indexed": false,
          "internalType": "string",
          "name": "gradientCID",
          "type": "string"
        },
        {
          "indexed": false,
          "internalType": "uint256",
          "name": "stake",
          "type": "uint256"
        },
        {
          "indexed": false,
          "internalType": "uint256",
          "name": "roundNumber",
          "type": "uint256"
        }
      ],
      "name": "GradientSubmitted",
      "type": "event"
    },
    {
      "anonymous": false,
      "inputs": [
        {
          "indexed": false,
          "internalType": "address",
          "name": "participant",
          "type": "address"
        },
        {
          "indexed": false,
          "internalType": "uint256",
          "name": "roundNumber",
          "type": "uint256"
        }
      ],
      "name": "NeutralContribution",
      "type": "event"
    },
    {
      "anonymous": false,
      "inputs": [
        {
          "indexed": false,
          "internalType": "uint256",
          "name": "roundNumber",
          "type": "uint256"
        }
      ],
      "name": "NewRoundStarted",
      "type": "event"
    },
    {
      "anonymous": false,
      "inputs": [
        {
          "indexed": false,
          "internalType": "address",
          "name": "participant",
          "type": "address"
        }
      ],
      "name": "ParticipantRegistered",
      "type": "event"
    },
    {
      "anonymous": false,
      "inputs": [
        {
          "indexed": false,
          "internalType": "address",
          "name": "participant",
          "type": "address"
        }
      ],
      "name": "ParticipantUnregistered",
      "type": "event"
    },
    {
      "anonymous": false,
      "inputs": [
        {
          "indexed": false,
          "internalType": "address",
          "name": "participant",
          "type": "address"
        },
        {
          "indexed": false,
          "internalType": "uint256",
          "name": "amount",
          "type": "uint256"
        },
        {
          "indexed": false,
          "internalType": "uint256",
          "name": "roundNumber",
          "type": "uint256"
        }
      ],
      "name": "Punished",
      "type": "event"
    },
    {
      "anonymous": false,
      "inputs": [
        {
          "indexed": false,
          "internalType": "address",
          "name": "participant",
          "type": "address"
        },
        {
          "indexed": false,
          "internalType": "int256",
          "name": "reputationChange",
          "type": "int256"
        },
        {
          "indexed": false,
          "internalType": "uint256",
          "name": "roundNumber",
          "type": "uint256"
        }
      ],
      "name": "ReputationUpdated",
      "type": "event"
    },
    {
      "anonymous": false,
      "inputs": [
        {
          "indexed": false,
          "internalType": "address",
          "name": "participant",
          "type": "address"
        },
        {
          "indexed": false,
          "internalType": "uint256",
          "name": "amount",
          "type": "uint256"
        },
        {
          "indexed": false,
          "internalType": "uint256",
          "name": "roundNumber",
          "type": "uint256"
        }
      ],
      "name": "Rewarded",
      "type": "event"
    },
    {
      "inputs": [],
      "name": "allSubmitted",
      "outputs": [
        {
          "internalType": "bool",
          "name": "",
          "type": "bool"
        }
      ],
      "stateMutability": "view",
      "type": "function",
      "constant": true
    },
    {
      "inputs": [],
      "name": "evaluationsSubmitted",
      "outputs": [
        {
          "internalType": "bool",
          "name": "",
          "type": "bool"
        }
      ],
      "stateMutability": "view",
      "type": "function",
      "constant": true
    },
    {
      "inputs": [],
      "name": "owner",
      "outputs": [
        {
          "internalType": "address",
          "name": "",
          "type": "address"
        }
      ],
      "stateMutability": "view",
      "type": "function",
      "constant": true
    },
    {
      "inputs": [
        {
          "internalType": "uint256",
          "name": "",
          "type": "uint256"
        }
      ],
      "name": "participantAddrs",
      "outputs": [
        {
          "internalType": "address",
          "name": "",
          "type": "address"
        }
      ],
      "stateMutability": "view",
      "type": "function",
      "constant": true
    },
    {
      "inputs": [],
      "name": "participantCount",
      "outputs": [
        {
          "internalType": "uint256",
          "name": "",
          "type": "uint256"
        }
      ],
      "stateMutability": "view",
      "type": "function",
      "constant": true
    },
    {
      "inputs": [
        {
          "internalType": "address",
          "name": "",
          "type": "address"
        }
      ],
      "name": "participants",
      "outputs": [
        {
          "internalType": "string",
          "name": "name",
          "type": "string"
        },
        {
          "internalType": "uint256",
          "name": "reputationScore",
          "type": "uint256"
        },
        {
          "internalType": "bool",
          "name": "exists",
          "type": "bool"
        },
        {
          "internalType": "string",
          "name": "gradientCID",
          "type": "string"
        },
        {
          "internalType": "uint256",
          "name": "stake",
          "type": "uint256"
        },
        {
          "internalType": "bool",
          "name": "submitted",
          "type": "bool"
        },
        {
          "internalType": "int256",
          "name": "evaluation",
          "type": "int256"
        },
        {
          "internalType": "bool",
          "name": "permittedToGlobalModel",
          "type": "bool"
        },
        {
          "internalType": "string",
          "name": "globalModelCID",
          "type": "string"
        }
      ],
      "stateMutability": "view",
      "type": "function",
      "constant": true
    },
    {
      "inputs": [],
      "name": "reward",
      "outputs": [
        {
          "internalType": "uint256",
          "name": "",
          "type": "uint256"
        }
      ],
      "stateMutability": "view",
      "type": "function",
      "constant": true
    },
    {
      "inputs": [],
      "name": "rewardPool",
      "outputs": [
        {
          "internalType": "uint256",
          "name": "",
          "type": "uint256"
        }
      ],
      "stateMutability": "view",
      "type": "function",
      "constant": true
    },
    {
      "inputs": [],
      "name": "rewardPunishCompleted",
      "outputs": [
        {
          "internalType": "bool",
          "name": "",
          "type": "bool"
        }
      ],
      "stateMutability": "view",
      "type": "function",
      "constant": true
    },
    {
      "inputs": [],
      "name": "roundNumber",
      "outputs": [
        {
          "internalType": "uint256",
          "name": "",
          "type": "uint256"
        }
      ],
      "stateMutability": "view",
      "type": "function",
      "constant": true
    },
    {
      "inputs": [],
      "name": "submissionCount",
      "outputs": [
        {
          "internalType": "uint256",
          "name": "",
          "type": "uint256"
        }
      ],
      "stateMutability": "view",
      "type": "function",
      "constant": true
    },
    {
      "inputs": [],
      "name": "deposit",
      "outputs": [],
      "stateMutability": "payable",
      "type": "function",
      "payable": true
    },
    {
      "inputs": [
        {
          "internalType": "address",
          "name": "addr",
          "type": "address"
        },
        {
          "internalType": "string",
          "name": "name",
          "type": "string"
        }
      ],
      "name": "registerParticipant",
      "outputs": [],
      "stateMutability": "nonpayable",
      "type": "function"
    },
    {
      "inputs": [
        {
          "internalType": "address",
          "name": "addr",
          "type": "address"
        }
      ],
      "name": "unregisterParticipant",
      "outputs": [],
      "stateMutability": "nonpayable",
      "type": "function"
    },
    {
      "inputs": [
        {
          "internalType": "address",
          "name": "addr",
          "type": "address"
        }
      ],
      "name": "getParticipant",
      "outputs": [
        {
          "components": [
            {
              "internalType": "string",
              "name": "name",
              "type": "string"
            },
            {
              "internalType": "uint256",
              "name": "reputationScore",
              "type": "uint256"
            },
            {
              "internalType": "bool",
              "name": "exists",
              "type": "bool"
            },
            {
              "internalType": "string",
              "name": "gradientCID",
              "type": "string"
            },
            {
              "internalType": "uint256",
              "name": "stake",
              "type": "uint256"
            },
            {
              "internalType": "bool",
              "name": "submitted",
              "type": "bool"
            },
            {
              "internalType": "int256",
              "name": "evaluation",
              "type": "int256"
            },
            {
              "internalType": "bool",
              "name": "permittedToGlobalModel",
              "type": "bool"
            },
            {
              "internalType": "string",
              "name": "globalModelCID",
              "type": "string"
            }
          ],
          "internalType": "struct IncentiveScheme.Participant",
          "name": "",
          "type": "tuple"
        }
      ],
      "stateMutability": "view",
      "type": "function",
      "constant": true
    },
    {
      "inputs": [
        {
          "internalType": "string",
          "name": "gradientCID",
          "type": "string"
        }
      ],
      "name": "submitGradientUpdate",
      "outputs": [],
      "stateMutability": "payable",
      "type": "function",
      "payable": true
    },
    {
      "inputs": [
        {
          "internalType": "address[]",
          "name": "addresses",
          "type": "address[]"
        },
        {
          "internalType": "int256[]",
          "name": "evaluations",
          "type": "int256[]"
        }
      ],
      "name": "submitContributionEvaluations",
      "outputs": [],
      "stateMutability": "nonpayable",
      "type": "function"
    },
    {
      "inputs": [],
      "name": "rewardPunish",
      "outputs": [],
      "stateMutability": "nonpayable",
      "type": "function"
    },
    {
      "inputs": [
        {
          "internalType": "address",
          "name": "participant",
          "type": "address"
        },
        {
          "internalType": "string",
          "name": "cid",
          "type": "string"
        }
      ],
      "name": "submitGlobalModelCID",
      "outputs": [],
      "stateMutability": "nonpayable",
      "type": "function"
    },
    {
      "inputs": [],
      "name": "newRound",
      "outputs": [],
      "stateMutability": "nonpayable",
      "type": "function"
    }
  ],
  "bytecode": "0x608060405267016345785d8a000060055560006007556000600860006101000a81548160ff0219169083151502179055506000600860016101000a81548160ff0219169083151502179055506000600860026101000a81548160ff02191690831515021790555033600360006101000a81548173ffffffffffffffffffffffffffffffffffffffff021916908373ffffffffffffffffffffffffffffffffffffffff16021790555060006006819055503460048190555061386e806100c56000396000f3fe60806040526004361061011f5760003560e01c80637143059f116100a0578063c5b1d9aa11610064578063c5b1d9aa146103be578063ce29cf47146103d5578063d0e30db0146103fe578063ec3a003b14610408578063fe1cdcc8146104335761011f565b80637143059f146102eb57806375e72569146103285780638da5cb5b14610351578063a11dbb2f1461037c578063a50d02aa146103935761011f565b8063362f04c0116100e7578063362f04c01461022357806349d07e891461024e5780634e2786fb1461026a57806366666aa9146102955780636ec02be9146102c05761011f565b806307aedfd31461012457806309e69ede1461014d57806321fae0b314610192578063228cb733146101cf57806331f3ab37146101fa575b600080fd5b34801561013057600080fd5b5061014b60048036038101906101469190612892565b61045e565b005b34801561015957600080fd5b50610174600480360381019061016f9190612869565b61069b565b6040516101899998979695949392919061325d565b60405180910390f35b34801561019e57600080fd5b506101b960048036038101906101b491906129a4565b6108a8565b6040516101c691906130e7565b60405180910390f35b3480156101db57600080fd5b506101e46108e7565b6040516101f19190613561565b60405180910390f35b34801561020657600080fd5b50610221600480360381019061021c9190612892565b6108ed565b005b34801561022f57600080fd5b50610238610ccc565b6040516102459190613561565b60405180910390f35b6102686004803603810190610263919061295f565b610cd2565b005b34801561027657600080fd5b5061027f610ffe565b60405161028c9190613561565b60405180910390f35b3480156102a157600080fd5b506102aa611004565b6040516102b79190613561565b60405180910390f35b3480156102cc57600080fd5b506102d561100a565b6040516102e29190613561565b60405180910390f35b3480156102f757600080fd5b50610312600480360381019061030d9190612869565b611010565b60405161031f919061353f565b60405180910390f35b34801561033457600080fd5b5061034f600480360381019061034a9190612869565b61131c565b005b34801561035d57600080fd5b50610366611775565b60405161037391906130e7565b60405180910390f35b34801561038857600080fd5b5061039161179b565b005b34801561039f57600080fd5b506103a8611da0565b6040516103b59190613202565b60405180910390f35b3480156103ca57600080fd5b506103d3611db3565b005b3480156103e157600080fd5b506103fc60048036038101906103f791906128ea565b6120f2565b005b610406612492565b005b34801561041457600080fd5b5061041d612580565b60405161042a9190613202565b60405180910390f35b34801561043f57600080fd5b50610448612593565b6040516104559190613202565b60405180910390f35b600360009054906101000a900473ffffffffffffffffffffffffffffffffffffffff1673ffffffffffffffffffffffffffffffffffffffff163373ffffffffffffffffffffffffffffffffffffffff16146104ee576040517f08c379a00000000000000000000000000000000000000000000000000000000081526004016104e59061347f565b60405180910390fd5b6000808473ffffffffffffffffffffffffffffffffffffffff1673ffffffffffffffffffffffffffffffffffffffff16815260200190815260200160002060020160009054906101000a900460ff1661057c576040517f08c379a0000000000000000000000000000000000000000000000000000000008152600401610573906133ff565b60405180910390fd5b6000808473ffffffffffffffffffffffffffffffffffffffff1673ffffffffffffffffffffffffffffffffffffffff16815260200190815260200160002060070160009054906101000a900460ff1661060a576040517f08c379a00000000000000000000000000000000000000000000000000000000081526004016106019061339f565b60405180910390fd5b81816000808673ffffffffffffffffffffffffffffffffffffffff1673ffffffffffffffffffffffffffffffffffffffff168152602001908152602001600020600801919061065a9291906125a6565b507ffb464608033b60875ab9c98995cb5497a77fed0a9ab70543ba6242414d42e07c83838360405161068e93929190613170565b60405180910390a1505050565b60006020528060005260406000206000915090508060000180546106be90613720565b80601f01602080910402602001604051908101604052809291908181526020018280546106ea90613720565b80156107375780601f1061070c57610100808354040283529160200191610737565b820191906000526020600020905b81548152906001019060200180831161071a57829003601f168201915b5050505050908060010154908060020160009054906101000a900460ff169080600301805461076590613720565b80601f016020809104026020016040519081016040528092919081815260200182805461079190613720565b80156107de5780601f106107b3576101008083540402835291602001916107de565b820191906000526020600020905b8154815290600101906020018083116107c157829003601f168201915b5050505050908060040154908060050160009054906101000a900460ff16908060060154908060070160009054906101000a900460ff169080600801805461082590613720565b80601f016020809104026020016040519081016040528092919081815260200182805461085190613720565b801561089e5780601f106108735761010080835404028352916020019161089e565b820191906000526020600020905b81548152906001019060200180831161088157829003601f168201915b5050505050905089565b600181815481106108b857600080fd5b906000526020600020016000915054906101000a900473ffffffffffffffffffffffffffffffffffffffff1681565b60055481565b600360009054906101000a900473ffffffffffffffffffffffffffffffffffffffff1673ffffffffffffffffffffffffffffffffffffffff163373ffffffffffffffffffffffffffffffffffffffff161461097d576040517f08c379a00000000000000000000000000000000000000000000000000000000081526004016109749061347f565b60405180910390fd5b6000808473ffffffffffffffffffffffffffffffffffffffff1673ffffffffffffffffffffffffffffffffffffffff16815260200190815260200160002060020160009054906101000a900460ff1615610a0c576040517f08c379a0000000000000000000000000000000000000000000000000000000008152600401610a03906133bf565b60405180910390fd5b6002805410610a50576040517f08c379a0000000000000000000000000000000000000000000000000000000008152600401610a47906134ff565b60405180910390fd5b60405180610120016040528083838080601f016020809104026020016040519081016040528093929190818152602001838380828437600081840152601f19601f820116905080830192505050505050508152602001600081526020016001151581526020016040518060200160405280600081525081526020016000815260200160001515815260200160008152602001600015158152602001604051806020016040528060008152508152506000808573ffffffffffffffffffffffffffffffffffffffff1673ffffffffffffffffffffffffffffffffffffffff1681526020019081526020016000206000820151816000019080519060200190610b5892919061262c565b506020820151816001015560408201518160020160006101000a81548160ff0219169083151502179055506060820151816003019080519060200190610b9f92919061262c565b506080820151816004015560a08201518160050160006101000a81548160ff02191690831515021790555060c0820151816006015560e08201518160070160006101000a81548160ff021916908315150217905550610100820151816008019080519060200190610c1192919061262c565b509050506001839080600181540180825580915050600190039060005260206000200160009091909190916101000a81548173ffffffffffffffffffffffffffffffffffffffff021916908373ffffffffffffffffffffffffffffffffffffffff16021790555060026000815480929190610c8b90613752565b91905055507fe11711cd714e06fbbbea301a8e90822f2f2ea4808e37e3adf06038f33c53ff2783604051610cbf91906130e7565b60405180910390a1505050565b60025481565b6000803373ffffffffffffffffffffffffffffffffffffffff1673ffffffffffffffffffffffffffffffffffffffff16815260200190815260200160002060020160009054906101000a900460ff16610d60576040517f08c379a0000000000000000000000000000000000000000000000000000000008152600401610d57906133ff565b60405180910390fd5b6000803373ffffffffffffffffffffffffffffffffffffffff1673ffffffffffffffffffffffffffffffffffffffff16815260200190815260200160002060050160009054906101000a900460ff1615610def576040517f08c379a0000000000000000000000000000000000000000000000000000000008152600401610de69061343f565b60405180910390fd5b67016345785d8a0000341015610e3a576040517f08c379a0000000000000000000000000000000000000000000000000000000008152600401610e319061349f565b60405180910390fd5b81816000803373ffffffffffffffffffffffffffffffffffffffff1673ffffffffffffffffffffffffffffffffffffffff1681526020019081526020016000206003019190610e8a9291906125a6565b50346000803373ffffffffffffffffffffffffffffffffffffffff1673ffffffffffffffffffffffffffffffffffffffff1681526020019081526020016000206004018190555060016000803373ffffffffffffffffffffffffffffffffffffffff1673ffffffffffffffffffffffffffffffffffffffff16815260200190815260200160002060050160006101000a81548160ff02191690831515021790555060076000815480929190610f3e90613752565b91905055503373ffffffffffffffffffffffffffffffffffffffff167f3a16e14c25fb4e11c9175367223bf2a5fb6e2ca367e138067a43a3b38536bec2838334600654604051610f91949392919061321d565b60405180910390a26002546007541415610ffa576001600860006101000a81548160ff0219169083151502179055507f7f05c6278dfad94f9f8275670115f24a4bca4504bb3c8449d0d0fc1c83fb3b76600654604051610ff19190613561565b60405180910390a15b5050565b60065481565b60045481565b60075481565b6110186126b2565b6000808373ffffffffffffffffffffffffffffffffffffffff1673ffffffffffffffffffffffffffffffffffffffff16815260200190815260200160002060020160009054906101000a900460ff166110a6576040517f08c379a000000000000000000000000000000000000000000000000000000000815260040161109d906133ff565b60405180910390fd5b6000808373ffffffffffffffffffffffffffffffffffffffff1673ffffffffffffffffffffffffffffffffffffffff1681526020019081526020016000206040518061012001604052908160008201805461110090613720565b80601f016020809104026020016040519081016040528092919081815260200182805461112c90613720565b80156111795780601f1061114e57610100808354040283529160200191611179565b820191906000526020600020905b81548152906001019060200180831161115c57829003601f168201915b50505050508152602001600182015481526020016002820160009054906101000a900460ff161515151581526020016003820180546111b790613720565b80601f01602080910402602001604051908101604052809291908181526020018280546111e390613720565b80156112305780601f1061120557610100808354040283529160200191611230565b820191906000526020600020905b81548152906001019060200180831161121357829003601f168201915b50505050508152602001600482015481526020016005820160009054906101000a900460ff16151515158152602001600682015481526020016007820160009054906101000a900460ff1615151515815260200160088201805461129390613720565b80601f01602080910402602001604051908101604052809291908181526020018280546112bf90613720565b801561130c5780601f106112e15761010080835404028352916020019161130c565b820191906000526020600020905b8154815290600101906020018083116112ef57829003601f168201915b5050505050815250509050919050565b600360009054906101000a900473ffffffffffffffffffffffffffffffffffffffff1673ffffffffffffffffffffffffffffffffffffffff163373ffffffffffffffffffffffffffffffffffffffff16146113ac576040517f08c379a00000000000000000000000000000000000000000000000000000000081526004016113a39061347f565b60405180910390fd5b6000808273ffffffffffffffffffffffffffffffffffffffff1673ffffffffffffffffffffffffffffffffffffffff16815260200190815260200160002060020160009054906101000a900460ff1661143a576040517f08c379a00000000000000000000000000000000000000000000000000000000081526004016114319061333f565b60405180910390fd5b6000808273ffffffffffffffffffffffffffffffffffffffff1673ffffffffffffffffffffffffffffffffffffffff168152602001908152602001600020600080820160006114899190612704565b60018201600090556002820160006101000a81549060ff02191690556003820160006114b59190612704565b60048201600090556005820160006101000a81549060ff021916905560068201600090556007820160006101000a81549060ff02191690556008820160006114fd9190612704565b505060005b600180549050811015611722578173ffffffffffffffffffffffffffffffffffffffff1660018281548110611560577f4e487b7100000000000000000000000000000000000000000000000000000000600052603260045260246000fd5b9060005260206000200160009054906101000a900473ffffffffffffffffffffffffffffffffffffffff1673ffffffffffffffffffffffffffffffffffffffff16141561170f5760018080805490506115b9919061360a565b815481106115f0577f4e487b7100000000000000000000000000000000000000000000000000000000600052603260045260246000fd5b9060005260206000200160009054906101000a900473ffffffffffffffffffffffffffffffffffffffff1660018281548110611655577f4e487b7100000000000000000000000000000000000000000000000000000000600052603260045260246000fd5b9060005260206000200160006101000a81548173ffffffffffffffffffffffffffffffffffffffff021916908373ffffffffffffffffffffffffffffffffffffffff16021790555060018054806116d5577f4e487b7100000000000000000000000000000000000000000000000000000000600052603160045260246000fd5b6001900381819060005260206000200160006101000a81549073ffffffffffffffffffffffffffffffffffffffff02191690559055611722565b808061171a90613752565b915050611502565b5060026000815480929190611736906136f6565b91905055507fee7534f4d762753f76fdc4d0d00428661277318878dea11262af92123d5a44b38160405161176a91906130e7565b60405180910390a150565b600360009054906101000a900473ffffffffffffffffffffffffffffffffffffffff1681565b600360009054906101000a900473ffffffffffffffffffffffffffffffffffffffff1673ffffffffffffffffffffffffffffffffffffffff163373ffffffffffffffffffffffffffffffffffffffff161461182b576040517f08c379a00000000000000000000000000000000000000000000000000000000081526004016118229061347f565b60405180910390fd5b600860019054906101000a900460ff1661187a576040517f08c379a0000000000000000000000000000000000000000000000000000000008152600401611871906132ff565b60405180910390fd5b600860029054906101000a900460ff16156118ca576040517f08c379a00000000000000000000000000000000000000000000000000000000081526004016118c19061335f565b60405180910390fd5b60005b600180549050811015611d8257600060018281548110611916577f4e487b7100000000000000000000000000000000000000000000000000000000600052603260045260246000fd5b9060005260206000200160009054906101000a900473ffffffffffffffffffffffffffffffffffffffff16905060008060008373ffffffffffffffffffffffffffffffffffffffff1673ffffffffffffffffffffffffffffffffffffffff16815260200190815260200160002090506000816006015490506000826004015490506064821315611b77576000816005546119b091906135b4565b90506004548111156119f7576040517f08c379a00000000000000000000000000000000000000000000000000000000081526004016119ee906133df565b60405180910390fd5b8060046000828254611a09919061360a565b9250508190555060008573ffffffffffffffffffffffffffffffffffffffff1682604051611a36906130d2565b60006040518083038185875af1925050503d8060008114611a73576040519150601f19603f3d011682016040523d82523d6000602084013e611a78565b606091505b5050905080611abc576040517f08c379a0000000000000000000000000000000000000000000000000000000008152600401611ab39061341f565b60405180910390fd5b6001856001016000828254611ad191906135b4565b9250508190555060018560070160006101000a81548160ff0219169083151502179055507f291e8ba3c0f4b0bd86e6e2346fcee1e7ca0975b1cc1886bfbc722d34f3f24d918683600654604051611b2a939291906131cb565b60405180910390a17f5712e29af9e0cda36f7084338830170ccb1f1c4986d27fc1d51d1f53562b9e66866001600654604051611b6893929190613102565b60405180910390a15050611d6b565b7fffffffffffffffffffffffffffffffffffffffffffffffffffffffffffffff9c821215611c81578060046000828254611bb191906135b4565b92505081905550600083600101541115611be2576001836001016000828254611bda919061360a565b925050819055505b7f79518e3d01d758cc6d21a6b9e3498ab383ef7832972db6eae679df281c9bfc9c8482600654604051611c17939291906131cb565b60405180910390a17f5712e29af9e0cda36f7084338830170ccb1f1c4986d27fc1d51d1f53562b9e66847fffffffffffffffffffffffffffffffffffffffffffffffffffffffffffffffff600654604051611c7493929190613139565b60405180910390a1611d6a565b60008473ffffffffffffffffffffffffffffffffffffffff1682604051611ca7906130d2565b60006040518083038185875af1925050503d8060008114611ce4576040519150601f19603f3d011682016040523d82523d6000602084013e611ce9565b606091505b5050905080611d2d576040517f08c379a0000000000000000000000000000000000000000000000000000000008152600401611d249061337f565b60405180910390fd5b7f1a0d6bcd051240b952d12aab6d87c346406445fa7de51ad676d815f7626e194485600654604051611d609291906131a2565b60405180910390a1505b5b505050508080611d7a90613752565b9150506118cd565b506001600860026101000a81548160ff021916908315150217905550565b600860019054906101000a900460ff1681565b600360009054906101000a900473ffffffffffffffffffffffffffffffffffffffff1673ffffffffffffffffffffffffffffffffffffffff163373ffffffffffffffffffffffffffffffffffffffff1614611e43576040517f08c379a0000000000000000000000000000000000000000000000000000000008152600401611e3a9061347f565b60405180910390fd5b600860029054906101000a900460ff16611e92576040517f08c379a0000000000000000000000000000000000000000000000000000000008152600401611e89906134bf565b60405180910390fd5b600060025411611ed7576040517f08c379a0000000000000000000000000000000000000000000000000000000008152600401611ece9061351f565b60405180910390fd5b60005b60018054905081101561204557600060018281548110611f23577f4e487b7100000000000000000000000000000000000000000000000000000000600052603260045260246000fd5b9060005260206000200160009054906101000a900473ffffffffffffffffffffffffffffffffffffffff16905060008060008373ffffffffffffffffffffffffffffffffffffffff1673ffffffffffffffffffffffffffffffffffffffff168152602001908152602001600020905060405180602001604052806000815250816003019080519060200190611fb992919061262c565b506000816004018190555060008160050160006101000a81548160ff0219169083151502179055506000816006018190555060008160070160006101000a81548160ff0219169083151502179055506040518060200160405280600081525081600801908051906020019061202f92919061262c565b505050808061203d90613752565b915050611eda565b5060006007819055506000600860006101000a81548160ff0219169083151502179055506000600860016101000a81548160ff0219169083151502179055506000600860026101000a81548160ff021916908315150217905550600660008154809291906120b290613752565b91905055507fae4cf40c31a833f14b2aee71da8cb55d5fd1944a9ed5b7696022328921f6e3176006546040516120e89190613561565b60405180910390a1565b600360009054906101000a900473ffffffffffffffffffffffffffffffffffffffff1673ffffffffffffffffffffffffffffffffffffffff163373ffffffffffffffffffffffffffffffffffffffff1614612182576040517f08c379a00000000000000000000000000000000000000000000000000000000081526004016121799061347f565b60405180910390fd5b600860019054906101000a900460ff16156121d2576040517f08c379a00000000000000000000000000000000000000000000000000000000081526004016121c99061331f565b60405180910390fd5b6002548484905014612219576040517f08c379a00000000000000000000000000000000000000000000000000000000081526004016122109061345f565b60405180910390fd5b818190508484905014612261576040517f08c379a00000000000000000000000000000000000000000000000000000000081526004016122589061345f565b60405180910390fd5b60005b8484905081101561242f576000808686848181106122ab577f4e487b7100000000000000000000000000000000000000000000000000000000600052603260045260246000fd5b90506020020160208101906122c09190612869565b73ffffffffffffffffffffffffffffffffffffffff1673ffffffffffffffffffffffffffffffffffffffff16815260200190815260200160002060020160009054906101000a900460ff1661234a576040517f08c379a0000000000000000000000000000000000000000000000000000000008152600401612341906133ff565b60405180910390fd5b828282818110612383577f4e487b7100000000000000000000000000000000000000000000000000000000600052603260045260246000fd5b905060200201356000808787858181106123c6577f4e487b7100000000000000000000000000000000000000000000000000000000600052603260045260246000fd5b90506020020160208101906123db9190612869565b73ffffffffffffffffffffffffffffffffffffffff1673ffffffffffffffffffffffffffffffffffffffff16815260200190815260200160002060060181905550808061242790613752565b915050612264565b506001600860016101000a81548160ff0219169083151502179055507f3e20f33b2fbf5ce74cb8f64aa3a5f4ad0913e4c7d10a2bf1478ba2270d4d88f660065460405161247c9190613561565b60405180910390a161248c61179b565b50505050565b600360009054906101000a900473ffffffffffffffffffffffffffffffffffffffff1673ffffffffffffffffffffffffffffffffffffffff163373ffffffffffffffffffffffffffffffffffffffff1614612522576040517f08c379a00000000000000000000000000000000000000000000000000000000081526004016125199061347f565b60405180910390fd5b60003411612565576040517f08c379a000000000000000000000000000000000000000000000000000000000815260040161255c906134df565b60405180910390fd5b346004600082825461257791906135b4565b92505081905550565b600860029054906101000a900460ff1681565b600860009054906101000a900460ff1681565b8280546125b290613720565b90600052602060002090601f0160209004810192826125d4576000855561261b565b82601f106125ed57803560ff191683800117855561261b565b8280016001018555821561261b579182015b8281111561261a5782358255916020019190600101906125ff565b5b5090506126289190612744565b5090565b82805461263890613720565b90600052602060002090601f01602090048101928261265a57600085556126a1565b82601f1061267357805160ff19168380011785556126a1565b828001600101855582156126a1579182015b828111156126a0578251825591602001919060010190612685565b5b5090506126ae9190612744565b5090565b6040518061012001604052806060815260200160008152602001600015158152602001606081526020016000815260200160001515815260200160008152602001600015158152602001606081525090565b50805461271090613720565b6000825580601f106127225750612741565b601f0160209004906000526020600020908101906127409190612744565b5b50565b5b8082111561275d576000816000905550600101612745565b5090565b6000813590506127708161380a565b92915050565b60008083601f84011261278857600080fd5b8235905067ffffffffffffffff8111156127a157600080fd5b6020830191508360208202830111156127b957600080fd5b9250929050565b60008083601f8401126127d257600080fd5b8235905067ffffffffffffffff8111156127eb57600080fd5b60208301915083602082028301111561280357600080fd5b9250929050565b60008083601f84011261281c57600080fd5b8235905067ffffffffffffffff81111561283557600080fd5b60208301915083600182028301111561284d57600080fd5b9250929050565b60008135905061286381613821565b92915050565b60006020828403121561287b57600080fd5b600061288984828501612761565b91505092915050565b6000806000604084860312156128a757600080fd5b60006128b586828701612761565b935050602084013567ffffffffffffffff8111156128d257600080fd5b6128de8682870161280a565b92509250509250925092565b6000806000806040858703121561290057600080fd5b600085013567ffffffffffffffff81111561291a57600080fd5b61292687828801612776565b9450945050602085013567ffffffffffffffff81111561294557600080fd5b612951878288016127c0565b925092505092959194509250565b6000806020838503121561297257600080fd5b600083013567ffffffffffffffff81111561298c57600080fd5b6129988582860161280a565b92509250509250929050565b6000602082840312156129b657600080fd5b60006129c484828501612854565b91505092915050565b6129d68161363e565b82525050565b6129e581613650565b82525050565b6129f481613650565b82525050565b612a038161365c565b82525050565b612a128161365c565b82525050565b612a2181613690565b82525050565b612a30816136a2565b82525050565b6000612a4283856135a3565b9350612a4f8385846136b4565b612a58836137f9565b840190509392505050565b6000612a6e8261357c565b612a788185613592565b9350612a888185602086016136c3565b612a91816137f9565b840191505092915050565b6000612aa78261357c565b612ab181856135a3565b9350612ac18185602086016136c3565b612aca816137f9565b840191505092915050565b6000612ae2601d836135a3565b91507f4576616c756174696f6e73206e6f74207375626d6974746564207965740000006000830152602082019050919050565b6000612b22601d836135a3565b91507f4576616c756174696f6e7320616c7265616479207375626d69747465640000006000830152602082019050919050565b6000612b62600e836135a3565b91507f4e6f7420726567697374657265640000000000000000000000000000000000006000830152602082019050919050565b6000612ba2601f836135a3565b91507f5265776172642f70756e69736820616c726561647920636f6d706c65746564006000830152602082019050919050565b6000612be26013836135a3565b91507f526566756e64207374616b65206661696c6564000000000000000000000000006000830152602082019050919050565b6000612c226030836135a3565b91507f5061727469636970616e74206e6f74207065726d697474656420746f2061636360008301527f65737320676c6f62616c206d6f64656c000000000000000000000000000000006020830152604082019050919050565b6000612c886012836135a3565b91507f416c7265616479207265676973746572656400000000000000000000000000006000830152602082019050919050565b6000612cc86021836135a3565b91507f496e73756666696369656e742066756e647320696e2072657761726420706f6f60008301527f6c000000000000000000000000000000000000000000000000000000000000006020830152604082019050919050565b6000612d2e601a836135a3565b91507f5061727469636970616e74206e6f7420726567697374657265640000000000006000830152602082019050919050565b6000612d6e600e836135a3565b91507f5061796d656e74206661696c65640000000000000000000000000000000000006000830152602082019050919050565b6000612dae6011836135a3565b91507f416c7265616479207375626d69747465640000000000000000000000000000006000830152602082019050919050565b6000612dee600d836135a3565b91507f496e76616c696420696e707574000000000000000000000000000000000000006000830152602082019050919050565b6000612e2e6012836135a3565b91507f4e6f7420636f6e7472616374206f776e657200000000000000000000000000006000830152602082019050919050565b6000612e6e600083613587565b9150600082019050919050565b6000612e88600d836135a3565b91507f5374616b6520746f6f206c6f77000000000000000000000000000000000000006000830152602082019050919050565b6000612ec8601b836135a3565b91507f5265776172642f70756e697368206e6f7420636f6d706c6574656400000000006000830152602082019050919050565b6000612f086012836135a3565b91507f4e6f2066756e6473206465706f736974656400000000000000000000000000006000830152602082019050919050565b6000612f486026836135a3565b91507f4d6178696d756d206e756d626572206f66207061727469636970616e7473207260008301527f65616368656400000000000000000000000000000000000000000000000000006020830152604082019050919050565b6000612fae601a836135a3565b91507f4e6f207061727469636970616e747320726567697374657265640000000000006000830152602082019050919050565b6000610120830160008301518482036000860152612fff8282612a63565b915050602083015161301460208601826130b4565b50604083015161302760408601826129dc565b506060830151848203606086015261303f8282612a63565b915050608083015161305460808601826130b4565b5060a083015161306760a08601826129dc565b5060c083015161307a60c08601826129fa565b5060e083015161308d60e08601826129dc565b506101008301518482036101008601526130a78282612a63565b9150508091505092915050565b6130bd81613686565b82525050565b6130cc81613686565b82525050565b60006130dd82612e61565b9150819050919050565b60006020820190506130fc60008301846129cd565b92915050565b600060608201905061311760008301866129cd565b6131246020830185612a18565b61313160408301846130c3565b949350505050565b600060608201905061314e60008301866129cd565b61315b6020830185612a27565b61316860408301846130c3565b949350505050565b600060408201905061318560008301866129cd565b8181036020830152613198818486612a36565b9050949350505050565b60006040820190506131b760008301856129cd565b6131c460208301846130c3565b9392505050565b60006060820190506131e060008301866129cd565b6131ed60208301856130c3565b6131fa60408301846130c3565b949350505050565b600060208201905061321760008301846129eb565b92915050565b60006060820190508181036000830152613238818688612a36565b905061324760208301856130c3565b61325460408301846130c3565b95945050505050565b6000610120820190508181036000830152613278818c612a9c565b9050613287602083018b6130c3565b613294604083018a6129eb565b81810360608301526132a68189612a9c565b90506132b560808301886130c3565b6132c260a08301876129eb565b6132cf60c0830186612a09565b6132dc60e08301856129eb565b8181036101008301526132ef8184612a9c565b90509a9950505050505050505050565b6000602082019050818103600083015261331881612ad5565b9050919050565b6000602082019050818103600083015261333881612b15565b9050919050565b6000602082019050818103600083015261335881612b55565b9050919050565b6000602082019050818103600083015261337881612b95565b9050919050565b6000602082019050818103600083015261339881612bd5565b9050919050565b600060208201905081810360008301526133b881612c15565b9050919050565b600060208201905081810360008301526133d881612c7b565b9050919050565b600060208201905081810360008301526133f881612cbb565b9050919050565b6000602082019050818103600083015261341881612d21565b9050919050565b6000602082019050818103600083015261343881612d61565b9050919050565b6000602082019050818103600083015261345881612da1565b9050919050565b6000602082019050818103600083015261347881612de1565b9050919050565b6000602082019050818103600083015261349881612e21565b9050919050565b600060208201905081810360008301526134b881612e7b565b9050919050565b600060208201905081810360008301526134d881612ebb565b9050919050565b600060208201905081810360008301526134f881612efb565b9050919050565b6000602082019050818103600083015261351881612f3b565b9050919050565b6000602082019050818103600083015261353881612fa1565b9050919050565b600060208201905081810360008301526135598184612fe1565b905092915050565b600060208201905061357660008301846130c3565b92915050565b600081519050919050565b600081905092915050565b600082825260208201905092915050565b600082825260208201905092915050565b60006135bf82613686565b91506135ca83613686565b9250827fffffffffffffffffffffffffffffffffffffffffffffffffffffffffffffffff038211156135ff576135fe61379b565b5b828201905092915050565b600061361582613686565b915061362083613686565b9250828210156136335761363261379b565b5b828203905092915050565b600061364982613666565b9050919050565b60008115159050919050565b6000819050919050565b600073ffffffffffffffffffffffffffffffffffffffff82169050919050565b6000819050919050565b600061369b8261365c565b9050919050565b60006136ad8261365c565b9050919050565b82818337600083830152505050565b60005b838110156136e15780820151818401526020810190506136c6565b838111156136f0576000848401525b50505050565b600061370182613686565b915060008214156137155761371461379b565b5b600182039050919050565b6000600282049050600182168061373857607f821691505b6020821081141561374c5761374b6137ca565b5b50919050565b600061375d82613686565b91507fffffffffffffffffffffffffffffffffffffffffffffffffffffffffffffffff8214156137905761378f61379b565b5b600182019050919050565b7f4e487b7100000000000000000000000000000000000000000000000000000000600052601160045260246000fd5b7f4e487b7100000000000000000000000000000000000000000000000000000000600052602260045260246000fd5b6000601f19601f8301169050919050565b6138138161363e565b811461381e57600080fd5b50565b61382a81613686565b811461383557600080fd5b5056fea264697066735822122065d065c4125fdebca6943a745f9a5192368d92a2a150c1a5dffc516aa6cb864c64736f6c63430008000033",
  "immutableReferences": {},
  "source": "// SPDX-License-Identifier: MIT\r\npragma solidity ^0.8.0;\r\n\r\n\r\ncontract IncentiveScheme {\r\n\r\n    struct Participant {\r\n        string name;\r\n        uint256 reputationScore;\r\n        bool exists;\r\n        string gradientCID;\r\n        uint256 stake;\r\n        bool submitted;\r\n        int256 evaluation;\r\n        bool permittedToGlobalModel;\r\n        string globalModelCID;\r\n    }\r\n\r\n    mapping(address => Participant) public participants;\r\n    address[] public participantAddrs;\r\n    uint256 public participantCount;\r\n    address public owner;\r\n    uint256 public rewardPool;\r\n    uint256 public reward = 0.1 ether;\r\n    uint256 public roundNumber;\r\n    uint256 public submissionCount = 0;\r\n    bool public allSubmitted = false;\r\n    bool public evaluationsSubmitted = false;\r\n    bool public rewardPunishCompleted = false;\r\n\r\n    event ParticipantRegistered(address participant);\r\n    event ParticipantUnregistered(address participant);\r\n    event GradientSubmitted(address indexed participant, string gradientCID, uint256 stake, uint256 roundNumber);\r\n    event AllParticipantsSubmitted(uint256 roundNumber);\r\n    event EvaluationsSubmitted(uint256 roundNumber);\r\n    event NewRoundStarted(uint256 roundNumber);\r\n    event Rewarded(address participant, uint256 amount, uint256 roundNumber);\r\n    event Punished(address participant, uint256 amount, uint256 roundNumber);\r\n    event NeutralContribution(address participant, uint256 roundNumber);\r\n    event ReputationUpdated(address participant, int256 reputationChange, uint256 roundNumber);\r\n    event GlobalModelSubmitted(address participant, string cid);\r\n\r\n    constructor() payable {\r\n        owner = msg.sender;\r\n        roundNumber = 0;\r\n        rewardPool = msg.value;\r\n    }\r\n\r\n    modifier onlyOwner() {\r\n        require(msg.sender == owner, \"Not contract owner\");\r\n        _;\r\n    }\r\n\r\n    /**\r\n     * @dev Deposit funds to reward pool.\r\n     */\r\n    function deposit() external payable onlyOwner {\r\n        require(msg.value > 0, \"No funds deposited\");\r\n        rewardPool += msg.value;\r\n    }\r\n\r\n    /**\r\n     * @dev Register a new participant.\r\n     */\r\n    function registerParticipant(address addr, string calldata name) public onlyOwner {\r\n        require(!participants[addr].exists, \"Already registered\");\r\n        require(participantCount < 2, \"Maximum number of participants reached\");\r\n\r\n        participants[addr] = Participant({\r\n            name: name,\r\n            reputationScore: 0,\r\n            exists: true,\r\n            gradientCID: \"\",\r\n            stake: 0,\r\n            submitted: false,\r\n            evaluation: 0,\r\n            permittedToGlobalModel: false,\r\n            globalModelCID: \"\"\r\n        });\r\n\r\n        participantAddrs.push(addr);\r\n        participantCount++;\r\n        emit ParticipantRegistered(addr);\r\n    }\r\n\r\n    /**\r\n     * @dev Unregister a participant.\r\n     */\r\n    function unregisterParticipant(address addr) public onlyOwner {\r\n        require(participants[addr].exists, \"Not registered\");\r\n\r\n        delete participants[addr];\r\n        for (uint i = 0; i < participantAddrs.length; i++) {\r\n            if (participantAddrs[i] == addr) {\r\n                participantAddrs[i] = participantAddrs[participantAddrs.length - 1];\r\n                participantAddrs.pop();\r\n                break;\r\n            }\r\n        }\r\n        participantCount--;\r\n        emit ParticipantUnregistered(addr);\r\n    }\r\n\r\n    /**\r\n     * @dev Get participant details.\r\n     */\r\n    function getParticipant(address addr) public view returns (Participant memory) {\r\n        require(participants[addr].exists, \"Participant not registered\");\r\n        return participants[addr];\r\n    }\r\n\r\n    /**\r\n     * @dev Submit masked gradient.\r\n     */\r\n    function submitGradientUpdate(string calldata gradientCID) external payable {\r\n        require(participants[msg.sender].exists, \"Participant not registered\");\r\n        require(!participants[msg.sender].submitted, \"Already submitted\");\r\n        require(msg.value >= 0.1 ether, \"Stake too low\");\r\n\r\n        participants[msg.sender].gradientCID = gradientCID;\r\n        participants[msg.sender].stake = msg.value;\r\n        participants[msg.sender].submitted = true;\r\n        submissionCount++;\r\n\r\n        emit GradientSubmitted(msg.sender, gradientCID, msg.value, roundNumber);\r\n\r\n        if (submissionCount == participantCount) {\r\n            allSubmitted = true;\r\n            emit AllParticipantsSubmitted(roundNumber);\r\n        }\r\n    }\r\n    \r\n    /**\r\n     * @dev Submit contribution evaluations.\r\n     */\r\n    function submitContributionEvaluations(address[] calldata addresses, int256[] calldata evaluations) external onlyOwner {\r\n        //require(allSubmitted, \"Not all participants have submitted\");\r\n        require(!evaluationsSubmitted, \"Evaluations already submitted\");\r\n        require(addresses.length == participantCount, \"Invalid input\");\r\n        require(addresses.length == evaluations.length, \"Invalid input\");\r\n\r\n        for (uint i = 0; i < addresses.length; i++) {\r\n            require(participants[addresses[i]].exists, \"Participant not registered\");\r\n            participants[addresses[i]].evaluation = evaluations[i];\r\n        }\r\n\r\n        evaluationsSubmitted = true;\r\n        emit EvaluationsSubmitted(roundNumber);\r\n\r\n        rewardPunish();\r\n    }\r\n\r\n    /**\r\n     * @dev Reward or punish accordingly. Update reputation scores. Initialize new round.\r\n     */\r\n    function rewardPunish() public onlyOwner {\r\n        require(evaluationsSubmitted, \"Evaluations not submitted yet\");\r\n        require(!rewardPunishCompleted, \"Reward/punish already completed\");\r\n    \r\n        for (uint i = 0; i < participantAddrs.length; i++) {\r\n            address pAddr = participantAddrs[i];\r\n            Participant storage p = participants[pAddr];\r\n            int256 pEvaluation = p.evaluation;\r\n            uint256 pStake = p.stake;\r\n\r\n            if(pEvaluation > 100) { // 0.1 or 10% improvement\r\n                uint256 totalPayout = reward + pStake;\r\n                require(totalPayout <= rewardPool, \"Insufficient funds in reward pool\");\r\n\r\n                rewardPool -= totalPayout;\r\n\r\n                (bool success, ) = pAddr.call{value: totalPayout}(\"\");\r\n                require(success, \"Payment failed\");\r\n\r\n                p.reputationScore += 1;\r\n                p.permittedToGlobalModel = true;\r\n\r\n                emit Rewarded(pAddr, totalPayout, roundNumber);\r\n                emit ReputationUpdated(pAddr, 1, roundNumber);\r\n\r\n            } else if(pEvaluation < -100) { // 0.1 or 10% degradation\r\n                rewardPool += pStake;\r\n\r\n                if(p.reputationScore > 0) {\r\n                    p.reputationScore -= 1; \r\n                }\r\n\r\n                emit Punished(pAddr, pStake, roundNumber);\r\n                emit ReputationUpdated(pAddr, -1, roundNumber);\r\n\r\n            } else { // within neutral range\r\n                (bool success, ) = pAddr.call{value: pStake}(\"\");\r\n                require(success, \"Refund stake failed\");\r\n\r\n                emit NeutralContribution(pAddr, roundNumber);\r\n            }\r\n        }\r\n\r\n        rewardPunishCompleted = true;\r\n    }\r\n\r\n    /**\r\n     * @dev Submit the global model CID for a participant. Encrypted with participants key.\r\n     */\r\n    function submitGlobalModelCID(address participant, string calldata cid) external onlyOwner {\r\n        require(participants[participant].exists, \"Participant not registered\");\r\n        require(participants[participant].permittedToGlobalModel, \"Participant not permitted to access global model\");\r\n\r\n        participants[participant].globalModelCID = cid;\r\n        emit GlobalModelSubmitted(participant, cid);\r\n    }\r\n\r\n    /**\r\n     * @dev Start new round.\r\n     */\r\n    function newRound() public onlyOwner {\r\n        require(rewardPunishCompleted, \"Reward/punish not completed\");\r\n        require(participantCount > 0, \"No participants registered\");\r\n\r\n        for (uint i = 0; i < participantAddrs.length; i++) {\r\n            address pAddr = participantAddrs[i];\r\n            Participant storage p = participants[pAddr];\r\n\r\n            p.gradientCID = \"\";\r\n            p.stake = 0;\r\n            p.submitted = false;\r\n            p.evaluation = 0;\r\n            p.permittedToGlobalModel = false;\r\n            p.globalModelCID = \"\";\r\n        }\r\n\r\n        submissionCount = 0;\r\n        allSubmitted = false;\r\n        evaluationsSubmitted = false;\r\n        rewardPunishCompleted = false;\r\n        roundNumber++;\r\n\r\n        emit NewRoundStarted(roundNumber);\r\n    }\r\n\r\n}\r\n",
  "sourcePath": "C:\\Users\\wjjm5\\Documents\\University\\Stage 4\\CSC8202 Group project Security\\SecureFederatedLearning\\blockchain\\contracts\\Incentive.sol",
  "compiler": {
    "name": "solc",
    "version": "0.8.0+commit.c7dfd78e.Emscripten.clang"
  },
  "schemaVersion": "3.4.16",
  "updatedAt": "2025-03-20T02:36:09.089Z",
  "networkType": "ethereum",
  "devdoc": {
    "kind": "dev",
    "methods": {
      "deposit()": {
        "details": "Deposit funds to reward pool."
      },
      "getParticipant(address)": {
        "details": "Get participant details."
      },
      "newRound()": {
        "details": "Start new round."
      },
      "registerParticipant(address,string)": {
        "details": "Register a new participant."
      },
      "rewardPunish()": {
        "details": "Reward or punish accordingly. Update reputation scores. Initialize new round."
      },
      "submitContributionEvaluations(address[],int256[])": {
        "details": "Submit contribution evaluations."
      },
      "submitGlobalModelCID(address,string)": {
        "details": "Submit the global model CID for a participant. Encrypted with participants key."
      },
      "submitGradientUpdate(string)": {
        "details": "Submit masked gradient."
      },
      "unregisterParticipant(address)": {
        "details": "Unregister a participant."
      }
    },
    "version": 1
  },
  "userdoc": {
    "kind": "user",
    "methods": {},
    "version": 1
  }
}