{
  "contractName": "FLMetadata",
  "abi": [
    {
      "inputs": [],
      "stateMutability": "nonpayable",
      "type": "constructor"
    },
    {
      "inputs": [
        {
          "internalType": "uint256",
          "name": "",
          "type": "uint256"
        }
      ],
      "name": "aggregatedModelHashes",
      "outputs": [
        {
          "internalType": "string",
          "name": "",
          "type": "string"
        }
      ],
      "stateMutability": "view",
      "type": "function",
      "constant": true
    },
    {
      "inputs": [],
      "name": "owner",
      "outputs": [
        {
          "internalType": "address",
          "name": "",
          "type": "address"
        }
      ],
      "stateMutability": "view",
      "type": "function",
      "constant": true
    },
    {
      "inputs": [],
      "name": "roundCount",
      "outputs": [
        {
          "internalType": "uint256",
          "name": "",
          "type": "uint256"
        }
      ],
      "stateMutability": "view",
      "type": "function",
      "constant": true
    },
    {
      "inputs": [
        {
          "internalType": "uint256",
          "name": "",
          "type": "uint256"
        }
      ],
      "name": "trainingRounds",
      "outputs": [
        {
          "internalType": "uint256",
          "name": "roundNumber",
          "type": "uint256"
        },
        {
          "internalType": "string",
          "name": "hospitalName",
          "type": "string"
        },
        {
          "internalType": "string",
          "name": "timestamp",
          "type": "string"
        },
        {
          "internalType": "string",
          "name": "maskIngredientsHash",
          "type": "string"
        },
        {
          "internalType": "string",
          "name": "hospitalSignature",
          "type": "string"
        }
      ],
      "stateMutability": "view",
      "type": "function",
      "constant": true
    },
    {
      "inputs": [
        {
          "internalType": "string",
          "name": "_hospitalName",
          "type": "string"
        },
        {
          "internalType": "string",
          "name": "_timestamp",
          "type": "string"
        },
        {
          "internalType": "string",
          "name": "_maskIngredientsHash",
          "type": "string"
        },
        {
          "internalType": "string",
          "name": "_hospitalSignature",
          "type": "string"
        }
      ],
      "name": "addTrainingRound",
      "outputs": [],
      "stateMutability": "nonpayable",
      "type": "function"
    },
    {
      "inputs": [
        {
          "internalType": "uint256",
          "name": "_roundNumber",
          "type": "uint256"
        },
        {
          "internalType": "string",
          "name": "_globalModelHash",
          "type": "string"
        }
      ],
      "name": "setAggregatedModelHash",
      "outputs": [],
      "stateMutability": "nonpayable",
      "type": "function"
    },
    {
      "inputs": [
        {
          "internalType": "uint256",
          "name": "_roundNumber",
          "type": "uint256"
        }
      ],
      "name": "getTrainingRound",
      "outputs": [
        {
          "components": [
            {
              "internalType": "uint256",
              "name": "roundNumber",
              "type": "uint256"
            },
            {
              "internalType": "string",
              "name": "hospitalName",
              "type": "string"
            },
            {
              "internalType": "string",
              "name": "timestamp",
              "type": "string"
            },
            {
              "internalType": "string",
              "name": "maskIngredientsHash",
              "type": "string"
            },
            {
              "internalType": "string",
              "name": "hospitalSignature",
              "type": "string"
            }
          ],
          "internalType": "struct FLMetadata.TrainingRound",
          "name": "",
          "type": "tuple"
        }
      ],
      "stateMutability": "view",
      "type": "function",
      "constant": true
    },
    {
      "inputs": [
        {
          "internalType": "uint256",
          "name": "_roundNumber",
          "type": "uint256"
        },
        {
          "internalType": "string",
          "name": "_signatureToVerify",
          "type": "string"
        }
      ],
      "name": "verifySignature",
      "outputs": [
        {
          "internalType": "bool",
          "name": "",
          "type": "bool"
        }
      ],
      "stateMutability": "view",
      "type": "function",
      "constant": true
    }
  ],
  "bytecode": "0x608060405234801561001057600080fd5b5033600360006101000a81548173ffffffffffffffffffffffffffffffffffffffff021916908373ffffffffffffffffffffffffffffffffffffffff1602179055506000600281905550611348806100696000396000f3fe608060405234801561001057600080fd5b50600436106100885760003560e01c80638da5cb5b1161005b5780638da5cb5b14610117578063ac2486ec14610135578063c12aa71b14610165578063fad9b0851461019557610088565b8063079626091461008d578063127f0b3f146100c157806371f5e9e9146100df578063886af924146100fb575b600080fd5b6100a760048036038101906100a29190610da3565b6101c5565b6040516100b895949392919061104e565b60405180910390f35b6100c961041b565b6040516100d69190611033565b60405180910390f35b6100f960048036038101906100f49190610dcc565b610421565b005b61011560048036038101906101109190610ce0565b6104dd565b005b61011f6105bb565b60405161012c9190610f99565b60405180910390f35b61014f600480360381019061014a9190610dcc565b6105e1565b60405161015c9190610fb4565b60405180910390f35b61017f600480360381019061017a9190610da3565b610873565b60405161018c9190610fcf565b60405180910390f35b6101af60048036038101906101aa9190610da3565b610913565b6040516101bc9190611011565b60405180910390f35b60006020528060005260406000206000915090508060000154908060010180546101ee9061122b565b80601f016020809104026020016040519081016040528092919081815260200182805461021a9061122b565b80156102675780601f1061023c57610100808354040283529160200191610267565b820191906000526020600020905b81548152906001019060200180831161024a57829003601f168201915b50505050509080600201805461027c9061122b565b80601f01602080910402602001604051908101604052809291908181526020018280546102a89061122b565b80156102f55780601f106102ca576101008083540402835291602001916102f5565b820191906000526020600020905b8154815290600101906020018083116102d857829003601f168201915b50505050509080600301805461030a9061122b565b80601f01602080910402602001604051908101604052809291908181526020018280546103369061122b565b80156103835780601f1061035857610100808354040283529160200191610383565b820191906000526020600020905b81548152906001019060200180831161036657829003601f168201915b5050505050908060040180546103989061122b565b80601f01602080910402602001604051908101604052809291908181526020018280546103c49061122b565b80156104115780601f106103e657610100808354040283529160200191610411565b820191906000526020600020905b8154815290600101906020018083116103f457829003601f168201915b5050505050905085565b60025481565b600360009054906101000a900473ffffffffffffffffffffffffffffffffffffffff1673ffffffffffffffffffffffffffffffffffffffff163373ffffffffffffffffffffffffffffffffffffffff16146104b1576040517f08c379a00000000000000000000000000000000000000000000000000000000081526004016104a890610ff1565b60405180910390fd5b806001600084815260200190815260200160002090805190602001906104d8929190610b91565b505050565b6001600260008282546104f0919061114b565b925050819055506040518060a00160405280600254815260200185815260200184815260200183815260200182815250600080600254815260200190815260200160002060008201518160000155602082015181600101908051906020019061055a929190610b91565b506040820151816002019080519060200190610577929190610b91565b506060820151816003019080519060200190610594929190610b91565b5060808201518160040190805190602001906105b1929190610b91565b5090505050505050565b600360009054906101000a900473ffffffffffffffffffffffffffffffffffffffff1681565b6000806000808581526020019081526020016000206040518060a00160405290816000820154815260200160018201805461061b9061122b565b80601f01602080910402602001604051908101604052809291908181526020018280546106479061122b565b80156106945780601f1061066957610100808354040283529160200191610694565b820191906000526020600020905b81548152906001019060200180831161067757829003601f168201915b505050505081526020016002820180546106ad9061122b565b80601f01602080910402602001604051908101604052809291908181526020018280546106d99061122b565b80156107265780601f106106fb57610100808354040283529160200191610726565b820191906000526020600020905b81548152906001019060200180831161070957829003601f168201915b5050505050815260200160038201805461073f9061122b565b80601f016020809104026020016040519081016040528092919081815260200182805461076b9061122b565b80156107b85780601f1061078d576101008083540402835291602001916107b8565b820191906000526020600020905b81548152906001019060200180831161079b57829003601f168201915b505050505081526020016004820180546107d19061122b565b80601f01602080910402602001604051908101604052809291908181526020018280546107fd9061122b565b801561084a5780601f1061081f5761010080835404028352916020019161084a565b820191906000526020600020905b81548152906001019060200180831161082d57829003601f168201915b505050505081525050905082805190602001208160800151805190602001201491505092915050565b600160205280600052604060002060009150905080546108929061122b565b80601f01602080910402602001604051908101604052809291908181526020018280546108be9061122b565b801561090b5780601f106108e05761010080835404028352916020019161090b565b820191906000526020600020905b8154815290600101906020018083116108ee57829003601f168201915b505050505081565b61091b610c17565b6000808381526020019081526020016000206040518060a0016040529081600082015481526020016001820180546109529061122b565b80601f016020809104026020016040519081016040528092919081815260200182805461097e9061122b565b80156109cb5780601f106109a0576101008083540402835291602001916109cb565b820191906000526020600020905b8154815290600101906020018083116109ae57829003601f168201915b505050505081526020016002820180546109e49061122b565b80601f0160208091040260200160405190810160405280929190818152602001828054610a109061122b565b8015610a5d5780601f10610a3257610100808354040283529160200191610a5d565b820191906000526020600020905b815481529060010190602001808311610a4057829003601f168201915b50505050508152602001600382018054610a769061122b565b80601f0160208091040260200160405190810160405280929190818152602001828054610aa29061122b565b8015610aef5780601f10610ac457610100808354040283529160200191610aef565b820191906000526020600020905b815481529060010190602001808311610ad257829003601f168201915b50505050508152602001600482018054610b089061122b565b80601f0160208091040260200160405190810160405280929190818152602001828054610b349061122b565b8015610b815780601f10610b5657610100808354040283529160200191610b81565b820191906000526020600020905b815481529060010190602001808311610b6457829003601f168201915b5050505050815250509050919050565b828054610b9d9061122b565b90600052602060002090601f016020900481019282610bbf5760008555610c06565b82601f10610bd857805160ff1916838001178555610c06565b82800160010185558215610c06579182015b82811115610c05578251825591602001919060010190610bea565b5b509050610c139190610c46565b5090565b6040518060a0016040528060008152602001606081526020016060815260200160608152602001606081525090565b5b80821115610c5f576000816000905550600101610c47565b5090565b6000610c76610c71846110ee565b6110bd565b905082815260208101848484011115610c8e57600080fd5b610c998482856111e9565b509392505050565b600082601f830112610cb257600080fd5b8135610cc2848260208601610c63565b91505092915050565b600081359050610cda816112fb565b92915050565b60008060008060808587031215610cf657600080fd5b600085013567ffffffffffffffff811115610d1057600080fd5b610d1c87828801610ca1565b945050602085013567ffffffffffffffff811115610d3957600080fd5b610d4587828801610ca1565b935050604085013567ffffffffffffffff811115610d6257600080fd5b610d6e87828801610ca1565b925050606085013567ffffffffffffffff811115610d8b57600080fd5b610d9787828801610ca1565b91505092959194509250565b600060208284031215610db557600080fd5b6000610dc384828501610ccb565b91505092915050565b60008060408385031215610ddf57600080fd5b6000610ded85828601610ccb565b925050602083013567ffffffffffffffff811115610e0a57600080fd5b610e1685828601610ca1565b9150509250929050565b610e29816111a1565b82525050565b610e38816111b3565b82525050565b6000610e498261111e565b610e538185611129565b9350610e638185602086016111f8565b610e6c816112ea565b840191505092915050565b6000610e828261111e565b610e8c818561113a565b9350610e9c8185602086016111f8565b610ea5816112ea565b840191505092915050565b6000610ebd60188361113a565b91507f4f6e6c79206f776e65722063616e2073657420686173682e00000000000000006000830152602082019050919050565b600060a083016000830151610f086000860182610f7b565b5060208301518482036020860152610f208282610e3e565b91505060408301518482036040860152610f3a8282610e3e565b91505060608301518482036060860152610f548282610e3e565b91505060808301518482036080860152610f6e8282610e3e565b9150508091505092915050565b610f84816111df565b82525050565b610f93816111df565b82525050565b6000602082019050610fae6000830184610e20565b92915050565b6000602082019050610fc96000830184610e2f565b92915050565b60006020820190508181036000830152610fe98184610e77565b905092915050565b6000602082019050818103600083015261100a81610eb0565b9050919050565b6000602082019050818103600083015261102b8184610ef0565b905092915050565b60006020820190506110486000830184610f8a565b92915050565b600060a0820190506110636000830188610f8a565b81810360208301526110758187610e77565b905081810360408301526110898186610e77565b9050818103606083015261109d8185610e77565b905081810360808301526110b18184610e77565b90509695505050505050565b6000604051905081810181811067ffffffffffffffff821117156110e4576110e36112bb565b5b8060405250919050565b600067ffffffffffffffff821115611109576111086112bb565b5b601f19601f8301169050602081019050919050565b600081519050919050565b600082825260208201905092915050565b600082825260208201905092915050565b6000611156826111df565b9150611161836111df565b9250827fffffffffffffffffffffffffffffffffffffffffffffffffffffffffffffffff038211156111965761119561125d565b5b828201905092915050565b60006111ac826111bf565b9050919050565b60008115159050919050565b600073ffffffffffffffffffffffffffffffffffffffff82169050919050565b6000819050919050565b82818337600083830152505050565b60005b838110156112165780820151818401526020810190506111fb565b83811115611225576000848401525b50505050565b6000600282049050600182168061124357607f821691505b602082108114156112575761125661128c565b5b50919050565b7f4e487b7100000000000000000000000000000000000000000000000000000000600052601160045260246000fd5b7f4e487b7100000000000000000000000000000000000000000000000000000000600052602260045260246000fd5b7f4e487b7100000000000000000000000000000000000000000000000000000000600052604160045260246000fd5b6000601f19601f8301169050919050565b611304816111df565b811461130f57600080fd5b5056fea2646970667358221220c8c988bcff544fd66c47774c1ded66e3a5f7d1f7d7233ff0afc7f835a67d90ec64736f6c63430008000033",
  "immutableReferences": {},
  "source": "// SPDX-License-Identifier: MIT\r\n// SPDX-License-Identifier: MIT\r\npragma solidity ^0.8.0;\r\npragma experimental ABIEncoderV2;\r\n\r\ncontract FLMetadata {\r\n\r\n    struct TrainingRound {\r\n        uint roundNumber;\r\n        string hospitalName;\r\n        string timestamp;\r\n        string maskIngredientsHash;\r\n        string hospitalSignature; //\r\n    }\r\n\r\n    mapping(uint => TrainingRound) public trainingRounds;\r\n    mapping(uint => string) public aggregatedModelHashes; //hash\r\n    uint public roundCount;\r\n    address public owner;\r\n\r\n    constructor() {\r\n        owner = msg.sender;\r\n        roundCount = 0;\r\n    }\r\n\r\n    modifier onlyOwner() {\r\n        require(msg.sender == owner, \"Only the owner can perform this action\");\r\n        _;\r\n    }\r\n\r\n    // \r\n    function addTrainingRound(\r\n        string memory _hospitalName,\r\n        string memory _timestamp,\r\n        string memory _maskIngredientsHash,\r\n        string memory _hospitalSignature\r\n    ) public {\r\n        roundCount += 1;\r\n        trainingRounds[roundCount] = TrainingRound(\r\n            roundCount,\r\n            _hospitalName,\r\n            _timestamp,\r\n            _maskIngredientsHash,\r\n            _hospitalSignature\r\n        );\r\n    }\r\n\r\n    // \r\n    function setAggregatedModelHash(uint _roundNumber, string memory _globalModelHash) public {\r\n        require(msg.sender == owner, \"Only owner can set hash.\");\r\n        aggregatedModelHashes[_roundNumber] = _globalModelHash;\r\n    }\r\n\r\n    // \r\n    function getTrainingRound(uint _roundNumber) public view returns (TrainingRound memory) {\r\n        return trainingRounds[_roundNumber];\r\n    }\r\n\r\n    // \r\n    function verifySignature(uint _roundNumber, string memory _signatureToVerify) public view returns (bool) {\r\n        TrainingRound memory round = trainingRounds[_roundNumber];\r\n        return keccak256(bytes(round.hospitalSignature)) == keccak256(bytes(_signatureToVerify));\r\n    }\r\n}\r\n    \r\n\r\n",
  "sourcePath": "C:\\Users\\Administrator\\Desktop\\SecureFederatedLearning-blockchain\\contracts\\FLMetadata.sol",
  "compiler": {
    "name": "solc",
    "version": "0.8.0+commit.c7dfd78e.Emscripten.clang"
  },
  "schemaVersion": "3.4.16",
  "updatedAt": "2025-03-17T23:49:25.025Z",
  "networkType": "ethereum",
  "devdoc": {
    "kind": "dev",
    "methods": {},
    "version": 1
  },
  "userdoc": {
    "kind": "user",
    "methods": {},
    "version": 1
  }
}